:020000040800F2
:10000000000001208D010008491F0008551F00084D
:100010005D1F0008651F00086D1F0008000000003C
:10002000000000000000000000000000751F000834
:10003000811F0008000000008D1F0008991F0008A4
:10004000DD010008DD010008DD010008DD01000818
:10005000DD010008DD010008DD010008DD01000808
:10006000DD010008DD010008DD010008DD010008F8
:10007000DD010008DD010008DD010008DD010008E8
:10008000DD010008DD010008DD010008DD010008D8
:10009000DD010008DD010008DD010008DD010008C8
:1000A000DD010008DD010008DD010008DD010008B8
:1000B000DD0100080000000000000000DD01000874
:1000C000DD010008DD010008DD010008DD01000898
:1000D000DD010008A91F0008DD010008DD0100089E
:1000E000DD010008DD010008000000000000000044
:1000F0000000000000000000000000000000000000
:1001000000000000DD01000800000000DD01000823
:100110000000000000000000DD010008DD01000813
:10012000DD010008DD010008DD010008DD01000837
:10013000DD010008000000000000000000000000D9
:10014000DD010008DD010008DD010008B91F00081D
:10015000DD010008DD010008DD010008DD01000807
:10016000DD010008DD010008DD01000800000000DD
:10017000DD010008DD010008DD01000800000000CD
:0C018000DD010008DD010008DD010008C1
:10018C00DFF834D0002103E00C4B5B5843500431B2
:10019C000B480C4B42189A42F6D30B4A02E0002350
:1001AC0042F8043B094B9A42F9D302F065F808F087
:1001BC00C9FF01F077F8FEE7000001200094000869
:1001CC00000000209805002098050020041800204D
:1001DC00FEE70000044B05481B1A062B02D9044B02
:1001EC0003B11847704700BF9B05002098050020FD
:1001FC000000000005490648091A891001EBD1716D
:10020C00491002D0034B03B11847704798050020E2
:10021C00980500200000000010B5064C237843B967
:10022C00FFF7D8FF044B13B10448AFF30080012350
:10023C00237010BD98050020000000008C01000800
:10024C0008B5084B1BB108480849AFF300800848B3
:10025C00036813B9BDE80840CCE7064B002BF9D076
:10026C009847F7E7000000008C0100089C0500206F
:10027C00980500200000000053B94AB9002908BFB6
:10028C0000281CBF4FF0FF314FF0FF3000F03CB89E
:10029C0082B0EC462DE9005000F01EF8DDF804E0C9
:1002AC0002B00CBC704700BF2DE9F041069C904693
:1002BC0006460F461D4600F029F808FB01FCA8FB7A
:1002CC00002300FB05C5B21A2B4467EB03038646DB
:1002DC00C4E90023BDE8F0812DE9F843089E1746D8
:1002EC00804689461D4600F067F900FB05F3A0FB2C
:1002FC00074507FB0137B8EB04043D4469EB0505E2
:10030C00C6E90045BDE8F883704700BF00292DE918
:10031C00F043C0F2A8800026002BC0F29E808146DC
:10032C008E4690469C46174604460D46002B3DD102
:10033C008A4259D9B2FA82F33BB1C3F120029D40F3
:10034C0020FA02F29F4015439C40390CB5FBF1F0AA
:10035C001FFA87FE01FB10550EFB00F3220C42EA3C
:10036C000545AB4209D9ED1900F1FF3280F00B8144
:10037C00AB4240F2088102383D44ED1AB5FBF1F373
:10038C0001FB13550EFB03FEA4B244EA0545AE4532
:10039C0008D9ED1903F1FF3280F0F780AE4540F239
:1003AC00F480023B43EA0043002203E08B420FD966
:1003BC0000221346341C18BF012460424FF0000584
:1003CC0065EB45015840514000196941BDE8F08387
:1003DC00B3FA83F2002A40F089808B4202D3804525
:1003EC0000F2E2800123E5E712B90123B3FBF2F737
:1003FC00B7FA87F8B8F1000F3BD1ED1B4FEA174C59
:10040C001FFA87FE0122B5FBFCF00CFB10550EFB0E
:10041C0000F3210C41EA0545AB4207D9ED1900F177
:10042C00FF3102D2AB4200F2C3800846ED1AB5FB95
:10043C00FCF30CFB13550EFB03FEA4B244EA05457A
:10044C00AE4507D9ED1903F1FF3102D2AE4500F2EA
:10045C00AD800B4643EA0043ACE752426FEA060616
:10046C0063EB43035BE7404261EB41014FF0FF3626
:10047C0052E707FA08F7C8F1200225FA02F34FEA0F
:10048C00174CB3FBFCF11FFA87FE0CFB113324FA5B
:10049C0002F205FA08F50EFB01F92A43100C40EAAA
:1004AC000343994504FA08F407D9DB1901F1FF302D
:1004BC0078D2994576D902393B44C9EB0303B3FB97
:1004CC00FCF00CFB10330EFB00F592B242EA034336
:1004DC009D4207D9DB1900F1FF325FD29D425DD9F5
:1004EC0002383B445D1B40EA01428CE7C2F1200319
:1004FC0028FA03F10CFA02FC41EA0C0C4FEA1C40FE
:10050C002EFA03F1B1FBF0F51FFA8CF700FB151175
:10051C0029FA03F30EFA02FE07FB05F943EA0E0E65
:10052C004FEA1E4343EA0141894508FA02F808D90B
:10053C0011EB0C0105F1FF3332D2894530D9023D64
:10054C006144C9EB0101B1FBF0F300FB131107FB94
:10055C0003F71FFA8EFE4EEA014E774508D91EEBC3
:10056C000C0E03F1FF3117D2774515D9023BE64447
:10057C0043EA0543A3FB0889C7EB0E0ECE4509D30E
:10058C0005D0002216E71046F7E613460AE794401A
:10059C004445F6D2013BF4E70B46E9E71046A1E7E8
:1005AC001D46CEE7014688E7134603E7023B51E7B9
:1005BC0002383D443AE700BF2DE9F043002B44D10B
:1005CC008A42154604464FD9B2FA82F70E464FB10D
:1005DC00C7F12003B94020FA03F602FA07F50E43DF
:1005EC0000FA07F42F0CB6FBF7F01FFA85FE07FB99
:1005FC0010620EFB00F1260C46EA0243994209D91F
:10060C005B1900F1FF3280F0EE80994240F2EB80F2
:10061C0002382B44591AB1FBF7F307FB13110EFBED
:10062C0003FEA4B244EA01418E4508D9491903F1ED
:10063C00FF3280F0DA808E4540F2D780023B43EAED
:10064C00004000263146BDE8F0838B4247D8B3FA10
:10065C0083F6002E48D18B4202D3824200F2CF8027
:10066C0001203146BDE8F08312B90125B5FBF2F546
:10067C00B5FA85FCBCF1000F78D1491B2F0C1FFA81
:10068C0085FE0126B1FBF7F007FB10110EFB00F203
:10069C00230C43EA01418A4207D9491900F1FF337F
:1006AC0002D28A4200F2BC801846891AB1FBF7F3D9
:1006BC0007FB13110EFB03FEA4B244EA014296455C
:1006CC0008D9521903F1FF3180F09180964540F220
:1006DC008E80023B43EA00403146BDE8F0830026A1
:1006EC0030463146BDE8F083C6F1200422FA04F509
:1006FC00B3402B4321FA04F74FEA1348B7FBF8FC3D
:10070C001FFA83F908FB1C7720FA04FE01FA06F5A0
:10071C0009FB0CF44EEA05054FEA154E4EEA074765
:10072C00BC4202FA06F204D9FF180CF1FF3168D36F
:10073C008C463F1BB7FBF8F408FB147709FB04F954
:10074C00ADB245EA0741894504D9C91804F1FF3512
:10075C005DD32C4644EA0C44A4FB0223C9EB0101F3
:10076C00994249D345D0204600266BE7CCF12004B2
:10077C0005FA0CF521FA04F32A0CB3FBF2F61FFA76
:10078C0085FE02FB163820FA04F701FA0CF10EFB79
:10079C0006F90F433C0C44EA0843994500FA0CF463
:1007AC0007D95B1906F1FF3138D2994536D9023E8B
:1007BC002B44C9EB0303B3FBF2F002FB10330EFB2B
:1007CC0000F1BFB247EA0343994207D95B1900F124
:1007DC00FF3721D299421FD902382B441746591A98
:1007EC0040EA06464EE7104614E7134627E70B4649
:1007FC0070E7B0409042B6D2601E002622E7304629
:10080C0020E7BC4294D9ACF1020C1F4491E7894516
:10081C009FD9023C19449DE73846DFE70E46C8E7EE
:10082C000238294441E700BF80B485B000AF78603E
:10083C0039607B685B68BB607B681B68BA68D31ADD
:10084C00FB60FB68002B03DAFB6803F58063FB603D
:10085C007B689A68FB689A4202DA7B68FA689A604D
:10086C00FB6840F2FF32934202D14FF0FF3315E0A8
:10087C00BB685A1CBA603A68D1B27A6813440A460B
:10088C001A73BB68C3F309027B685A60FB68B3F543
:10089C00407F02DD044B01221A60002318461437F6
:1008AC00BD465DF8047B7047C005002080B584B060
:1008BC0000AF786039607B681B68BB607B685A68E6
:1008CC00BB68D31AFB60FB68002B03DAFB6803F5EB
:1008DC008063FB60FB68002B02D14FF0FF331AE002
:1008EC00BB685A1CBA607A6813441A7B3B681A704E
:1008FC00BB68C3F309027B681A60094B1B68002BA9
:10090C0008D0FB68FF2B05DC054B00221A6005485C
:10091C0008F0D0FB002318461037BD4680BD00BF41
:10092C00C0050020DC15002080B584B000AF7860D5
:10093C007B68FB6002E0FB680133FB60FB681B78A3
:10094C00002BF8D1124B1B68002B0AD1FA687B687C
:10095C00D31A9BB20F4879681A464FF4FA7305F014
:10096C007FF9FA687B68D31A9BB27868194600F055
:10097C0051FFFA687B689A4207D9FB68013B1B78E8
:10098C000A2B02D10448FFF7CFFF1037BD4680BDBC
:10099C00C4050020F00C00205892000880B582B0ED
:1009AC0000AF786000BF074B1A68064B5B689A4231
:1009BC00F9D004487968FFF779FF034618460837E1
:1009CC00BD4680BDC805002080B582B000AF786000
:1009DC00074879680122002305F0D0F90346002B63
:1009EC0001D0012300E0002318460837BD4680BD26
:1009FC00F00C002080B582B000AF78600248FFF7A1
:100A0C0093FF0837BD4680BD5C92000880B584B06A
:100A1C0000AF786039603B681B68BB600023FB60EB
:100A2C0012E07B685A1C7A601B7810481946FFF755
:100A3C00FBFE0346002B04DA0D48FFF775FF00237D
:100A4C000EE0FB680133FB60FA68BB689A42E8DB96
:100A5C00084B1B68002B02D1074808F02BFB002326
:100A6C005BB218461037BD4680BD00BFC8050020DC
:100A7C006C920008C0050020DC15002080B400AF8B
:100A8C00044B054ADA60054B01221A60BD465DF83D
:100A9C00047B704700000020190A0008C0050020E4
:100AAC0080B582B000AF78607B68184604F048FDD2
:100ABC000837BD4680BD00BF80B584B000AF7860FC
:100ACC0039600023FB604FF400437B811CE07A8982
:100ADC003B689A4201D93B687B817B890E487968D7
:100AEC001A464FF0FF3306F0DFF80346FB60FB6855
:100AFC00002B01D0FB680BE07B893A68D31A3B6072
:100B0C007B897A6813447B603B68002BDFD1FB68E0
:100B1C0018461037BD4680BD8C0C002080B582B0C5
:100B2C0000AF78607B68002B08DB0F4B1B685A1CEE
:100B3C000D490A607A68D1B20C4AD1547B68002BFB
:100B4C0003DA094B1B68002B03DC074B1B68402B9B
:100B5C0006D106484021FFF7AFFF034B00221A6075
:100B6C000837BD4680BD00BF140A0020D409002000
:100B7C0080B500AF044801F00DFB4FF090404FF4EE
:100B8C00004104F06BFE80BD8C0C002080B586B05B
:100B9C0000AF0A4801F0D0FA4FF400437B60012308
:100BAC00BB600023FB6000233B613B1D4FF090407A
:100BBC00194604F0DBFC1837BD4680BD8C0C0020B8
:100BCC0080B500AF034B01221A60034801F034FBDF
:100BDC0080BD00BFC4050020F00C002080B582B0A1
:100BEC0000AF17484021002204F02CFF4FF090403A
:100BFC004FF40041002204F025FF0120FFF750FFC5
:100C0C000F484021012204F01DFF64237B6007E0A4
:100C1C007B68013B7B607B68002B01D101230AE0E0
:100C2C000748802104F0F6FE0346012BF0D0022089
:100C3C00FFF736FF002318460837BD4680BD00BFBE
:100C4C000004004880B584B000AF0023FB71194844
:100C5C00FFF76AFE6423FB600FE0FB68002B04D1F6
:100C6C001548FFF761FE022320E0FB1D1846012109
:100C7C00FFF722FFFB68013BFB601048802104F06A
:100C8C00C9FE0346012BE8D10023BB6007E0FB1D26
:100C9C0018460121FFF710FFBB680133BB60BB682E
:100CAC00062BF4DD0648FFF73FFE002318461037ED
:100CBC00BD4680BD7C9200088C9200080004004860
:100CCC009C92000880B487B000AF0346FB71FB799F
:100CDC001B023B61144B1B887B610023FB6016E0FD
:100CEC000023BB607A693B69534003F40043002B3B
:100CFC0002D041F22103BB607B695A00BB685340B0
:100D0C007B613B695B003B61FB680133FB60FB680B
:100D1C00072BE5DD7B699AB2034B1A801C37BD4665
:100D2C005DF8047B704700BFB405002080B400AFB1
:100D3C00034B4FF6FF721A80BD465DF8047B70477B
:100D4C00B405002080B582B000AF786039607B6854
:100D5C00002B05D14FF0FF30FFF7E0FE002313E02E
:100D6C007868FFF71BFE0346002B02D04FF0FF33D1
:100D7C000AE07B681B781846FFF7D0FE7B681B786F
:100D8C001846FFF79FFF002318460837BD4680BD65
:100D9C0080B582B000AF78603960104B1A68104B88
:100DAC001B689A4202D34FF0FF3312E07B68002B92
:100DBC0001D100230DE0094B1B685A1C07490A603E
:100DCC001A787B681A707B681B781846FFF77AFFD5
:100DDC00002318460837BD4680BD00BFB80500206B
:100DEC00BC05002080B582B000AF78603960144B30
:100DFC001A68144B1B689A4202D34FF0FF331AE067
:100E0C007B68002B05D14FF0FF30FFF787FE0023E6
:100E1C0011E00B4B1B685A1C09490A601A787B6855
:100E2C001A7078680121FFF747FE7B681B7818461B
:100E3C00FFF748FF002318460837BD4680BD00BFAA
:100E4C00B8050020BC05002080B584B000AFF86068
:100E5C00B9607A603B6009E0FB687868396898474C
:100E6C000346002B02DA4FF0FF3305E0BB685A1E35
:100E7C00BA60002BF0DC002318461037BD4680BD4D
:100E8C0080B58AB000AF7860396000233B620023E4
:100E9C007B6100233B613B687B6213E007F10B0233
:100EAC007B681046704998470346002B02DA4FF0D6
:100EBC00FF33D5E07B6A1B027B62FB7A1A467B6AA6
:100ECC0013437B627B6A694A9342E7D1BCE0FB7AAD
:100EDC001B09DBB2FB60FB7A03F00F03FB61002301
:100EEC00BB6113E007F10B027B6810465E49984723
:100EFC000346002B02DA4FF0FF33B1E0BB691B0253
:100F0C00BB61FB7A1A46BB691343BB61FB695A1E72
:100F1C00FA61002BE6DCFB68092B17D801A252F80A
:100F2C0023F000BF830F0008451000085F0F000876
:100F3C00590F0008590F000845100008750F0008DC
:100F4C007D0F000845100008451000084FF0FF33D6
:100F5C0086E0454B1B88002B05D04548FFF7E4FC89
:100F6C004FF0FF337CE068E0BB6901337B6164E0E8
:100F7C00BB693B6161E0BB69013B052B0ED801A24B
:100F8C0052F823F0AF0F0008A90F0008AF0F0008AC
:100F9C00A90F00081B100008211000084FF0FF33A8
:100FAC005EE03B697A6902FB03F3002B00DA07333E
:100FBC00DB101A4607F10B03786811461A462A4BC8
:100FCC00FFF742FF0346002B02DA4FF0FF3347E0F6
:100FDC0007F10B027B681046234998470346002B08
:100FEC0002DBFB7A002B02D04FF0FF3338E007F125
:100FFC000B027B6810461C4998470346002B02DB0A
:10100C00FB7A002B02D04FF0FF3329E015E0FFF7FD
:10101C008DFE12E03B6A002B02D14FF0FF331FE034
:10102C0007F10B027B6810460F4998477B6800203C
:10103C0000219847002313E000BFFB68022B0CBF74
:10104C0001230023DBB23B6207F10B027B681046E5
:10105C00054998470346002B3FF439AF4FF0FF3357
:10106C0018462837BD4680BDB40500207E99AA7E5F
:10107C00AC92000880B582B000AF3A484FF4004102
:10108C00012204F0DFFCFFF773FD36484FF40051EA
:10109C00002204F0D7FC344B344A1A60344B354AE6
:1010AC001A603548FFF740FC3448FFF73DFCFFF76A
:1010BC003DFE33480021FFF7E3FE0346002B33D1FE
:1010CC003048FFF731FC284B284A1A60FFF72EFEF8
:1010DC0024484FF40051012204F0B4FCFFF756FDF4
:1010EC00FFF77CFD0346002B03D02748FFF71CFCC1
:1010FC0012E026480021FFF7C3FE0346002B03D065
:10110C002348FFF711FC07E0FFF79CFD0346002B7B
:10111C0002D02048FFF708FCFFF72AFD11484FF4D6
:10112C000051002204F08EFC1B48FFF7FDFB00BFB2
:10113C00FB1D1846FFF748FC0346002BF8D0FFF7C1
:10114C009DFC08484FF48041002204F07BFC0548CC
:10115C004FF40041002204F075FCFFF731FD083715
:10116C00BD4680BD00080048B805002000F001080D
:10117C00BC050020000004087C920008B89200080E
:10118C009D0D0008BC920008D4920008F10D0008D7
:10119C00E4920008F49200080893000880B582B02D
:1011AC0000AF0023FB71374B1B68002B08D036486F
:1011BC004FF4005104F05EFC642004F0C1F95DE0D2
:1011CC003248FFF7B1FB324B1B68002B08D031487B
:1011DC0007F070FF0346002B02D12D4B00221A6042
:1011EC00FB1D2D481946FFF761FBFB797E2BEAD1DD
:1011FC0025484FF40051012204F024FC22484FF4FE
:10120C000041012204F01EFCFFF7C0FCFFF7E6FCD6
:10121C0002461C4B1A601B4B1B68002B00D02DE0A8
:10122C00FFF784FDFB1D18460121FFF745FCFB79F8
:10123C001846FFF747FDFB7918481946FFF720FEC3
:10124C000246104B1A600F4B1B68002B03D014483E
:10125C00FFF76AFB12E0FFF7F5FC0246094B1A6038
:10126C00FFF786FC08484FF40041002204F0EAFB2B
:10127C0005484FF40051002204F0E4FB0837BD464A
:10128C0080BD00BF180A0020000800481493000815
:10129C00C0050020DC150020C8050020510D0008F9
:1012AC00E492000880B500AF04F006F900F012F8E3
:1012BC0000F04EF900F088F800F0E0F800F01AF9B0
:1012CC0000F0B8F800F018FEFFF7D4FEFFF766FF49
:1012DC00FCE700BF80B5AEB000AF23237B674FF4B3
:1012EC008033BB674FF48073C7F880300123C7F895
:1012FC0098301023C7F884300223C7F89C3003239E
:10130C00C7F8A0300323C7F8A4302823C7F8A830A7
:10131C000723C7F8AC300223C7F8B0300223C7F854
:10132C00B43007F17403184601F060F80346002B43
:10133C0001D000F0D7F90F233B6603237B66002313
:10134C00BB660023FB6600233B6707F1600318466E
:10135C00042101F00DFC0346002B01D000F0C2F972
:10136C0042F241033B6002233B6200233B630023B8
:10137C00BB643B46184605F0FBFE0346002B01D030
:10138C0000F0B0F94FF4007001F0D2FE0346002BD0
:10139C0001D000F0A7F901F00BFE0246094BA3FBAC
:1013AC0002239B09184606F09FFB042006F0A8FBBD
:1013BC004FF0FF300021002206F05EFBB837BD462F
:1013CC0080BD00BFD34D621080B500AF164B174ADD
:1013DC001A60154B164A5A60134B00229A60124B36
:1013EC000122DA60104B00221A610F4B00225A6165
:1013FC000D4B00229A610C4B0022DA610A4B002241
:10140C001A62094800F064FF0346002B01D000F07B
:10141C0069F90548002101F0EDFE0346002B01D0CF
:10142C0000F060F980BD00BF400C0020005400406B
:10143C00EC9C901080B500AF0E4B0F4A1A600D4B10
:10144C00FF225A600B4B01229A600A4B0022DA6091
:10145C00084B01221A61074B00225A61054B0022EE
:10146C009A61044806F0BEFB0346002B01D000F045
:10147C0039F980BD600D0020001000A080B500AFD0
:10148C001A4B1B4A1A60194B4FF482725A60174B55
:10149C0000229A60154B4FF4E062DA60134B022283
:1014AC001A61124B01225A61104B4FF400729A616F
:1014BC000E4B0822DA610D4B00221A620B4B0022F4
:1014CC005A620A4B00229A62084B0722DA62074BD7
:1014DC0000221A63054B00225A63044805F05CFB9A
:1014EC000346002B01D000F0FDF880BD8C0C0020D1
:1014FC00003C004080B500AF134B144A1A60124BED
:10150C004FF4E1325A60104B00229A600E4B0022CD
:10151C00DA600D4B00221A610B4B0C225A610A4BFC
:10152C0000229A61084B0022DA61074B00221A62F2
:10153C00054B00225A62044804F040FB0346002B82
:10154C0001D000F0CFF880BDF00C00200038014035
:10155C0080B58AB000AF5F4A5E4BDB6C43F004038E
:10156C00D3645C4BDB6C03F004033B613B69594A6D
:10157C00584BDB6C43F08003D364564BDB6C03F0AD
:10158C008003FB60FB68534A524BDB6C43F0010356
:10159C00D364504BDB6C03F00103BB60BB684D4A5A
:1015AC004C4BDB6C43F00203D3644A4BDB6C03F013
:1015BC0002037B607B68474A464BDB6C43F00803B5
:1015CC00D364444BDB6C03F008033B603B6842483C
:1015DC004FF46041002204F035FA4FF090404FF484
:1015EC000041012204F02EFA3C484021012204F073
:1015FC0029FA4FF460437B610123BB610023FB613B
:10160C0000233B6207F114033348194603F0AEFF85
:10161C0041F6FF737B610023BB610023FB6107F183
:10162C0014032D48194603F0A1FF40F233137B61DC
:10163C000023BB610023FB6107F114034FF09040C2
:10164C00194603F093FF4FF604437B610023BB6103
:10165C000023FB6107F114032048194603F086FFB1
:10166C004FF400437B610123BB610023FB6100232A
:10167C003B6207F114034FF09040194603F076FFDC
:10168C0004237B610023BB610023FB6107F114037E
:10169C001348194603F06AFF40237B610123BB61A9
:1016AC000023FB6100233B6207F114030B4819462E
:1016BC0003F05CFF80237B610023BB610123FB6192
:1016CC0007F114030548194603F050FF2837BD46AF
:1016DC0080BD00BF00100240000800480004004814
:1016EC00000C004880B400AFFEE700BF80B500AF2F
:1016FC0006480749002207F085FC0448054907F015
:10170C009BFC00235BB2184680BD00BFDC1500209B
:10171C00A40F0020A40D002080B400AF00235BB206
:10172C001846BD465DF8047B704700BF80B483B09B
:10173C0000AF03463960FB711346BB80FB79232B4A
:10174C004AD801A252F823F0E5170008E517000863
:10175C00E5170008E5170008E5170008E51700086D
:10176C00E5170008E5170008E5170008E51700085D
:10177C00E5170008E5170008E5170008E51700084D
:10178C00E5170008E5170008E5170008E51700083D
:10179C00E5170008E5170008E5170008E51700082D
:1017AC00E5170008E5170008E5170008E51700081D
:1017BC00E5170008E5170008E5170008E51700080D
:1017CC00E5170008E5170008E5170008E5170008FD
:1017DC00E5170008E517000800BF00235BB21846A8
:1017EC000C37BD465DF8047B704700BF80B582B0F6
:1017FC0000AF786039600648796807F01DFC044832
:10180C0007F058FC00235BB218460837BD4680BD74
:10181C00DC15002080B584B000AF78600B467B806F
:10182C000023FB730D4BD3F81832BB60BB68D3F8A5
:10183C001432002B01D001230BE07B880748796818
:10184C001A4607F0DFFB054807F00AFC0346FB735A
:10185C00FB7B18461037BD4680BD00BFDC15002051
:10186C0080B584B000AF78607B681B680C4A9342EB
:10187C0013D10C4A0B4B9B6D43F080639365094B62
:10188C009B6D03F08063FB60FB684320002100220A
:10189C0006F0F2F8432006F00BF91037BD4680BD78
:1018AC00006800400010024080B582B000AF786044
:1018BC007B68D3F830247B6803F57C73104619469B
:1018CC0006F016FB0837BD4680BD00BF80B582B060
:1018DC0000AF78600B46FB707B68D3F83014FB7854
:1018EC007A685B01134403F506739B68FA78084623
:1018FC0011461A4606F046FB0837BD4680BD00BFB0
:10190C0080B582B000AF78600B46FB707B68D3F873
:10191C003014FB787A685B01134438339B68FA788F
:10192C00084611461A4606F089FB0837BD4680BDAD
:10193C0080B582B000AF78607B68D3F8303418463D
:10194C0006F074FC0837BD4680BD00BF80B584B07E
:10195C0000AF78600123FB737B689B68012B02D17D
:10196C000123FB7302E00123FB7300BF7B68D3F8F8
:10197C003024FB7B1046194606F020FC7B68D3F81C
:10198C003034184606F0EAFB1037BD4680BD00BF68
:10199C0080B582B000AF78607B68D3F830341846DD
:1019AC0006F01CFC7B68DB69002B05D0044A044B59
:1019BC001B6943F0060313610837BD4680BD00BFA9
:1019CC0000ED00E080B582B000AF78607B68DB6929
:1019DC00002B07D0084A084B1B6923F00603136140
:1019EC0000F0ACF97B68D3F83034184606F00CFCE8
:1019FC000837BD4680BD00BF00ED00E080B582B069
:101A0C0000AF786001F0E8FB2F4A7B68C2F83034F5
:101A1C007B682D4AC3F820222B4B2C4A1A602A4B88
:101A2C0008225A60284B01229A60274B00221A6127
:101A3C00254B01225A61244B00229A61224B002231
:101A4C00DA61214B00221A621F4B00225A621E4897
:101A5C0001F01CFC0346002B01D0FFF743FE7B6812
:101A6C00D3F82032184600210022182304F014F871
:101A7C007B68D3F82032184680210022582304F0CA
:101A8C000BF87B68D3F82032184681210022C02342
:101A9C0004F002F87B68D3F82032184601210022AA
:101AAC004FF4887303F0F8FF7B68D3F820321846A4
:101ABC00822100224FF4807303F0EEFF00231846BE
:101ACC000837BD4680BD00BFA80F0020006800404D
:101ADC0080B582B000AF78607B68D3F820321846AE
:101AEC0001F0C2FC002318460837BD4680BD00BF7C
:101AFC0080B582B000AF7860084611461A4603469E
:101B0C00FB700B46BB7013463B807B68D3F82002FE
:101B1C00F9783A88BB7801F065FE0023184608373F
:101B2C00BD4680BD80B582B000AF78600B46FB70BF
:101B3C007B68D3F82022FB781046194601F0A8FEEA
:101B4C00002318460837BD4680BD00BF80B582B063
:101B5C0000AF78600B46FB707B68D3F82022FB78D3
:101B6C001046194601F098FF002318460837BD4669
:101B7C0080BD00BF80B582B000AF78600B46FB70B3
:101B8C007B68D3F82022FB781046194601F0DEFF63
:101B9C00002318460837BD4680BD00BF80B485B011
:101BAC0000AF78600B46FB707B68D3F82032FB608B
:101BBC00FB785BB2002B08DAFB7803F07F03FA6842
:101BCC005B01134428339B7908E0FB7803F07F0317
:101BDC00FA685B01134403F502739B7918461437BA
:101BEC00BD465DF8047B704780B582B000AF78606D
:101BFC000B46FB707B68D3F82022FB781046194605
:101C0C0001F0CAFD002318460837BD4680BD00BF51
:101C1C0080B584B000AFF8607A601A460B46FB7250
:101C2C0013463B81FB68D3F820123B89FA7A0846AD
:101C3C0011467A6801F0DCFE002318461037BD46C9
:101C4C0080BD00BF80B584B000AFF8607A601A46E2
:101C5C000B46FB7213463B81FB68D3F820123B8981
:101C6C00FA7A084611467A6801F058FE00231846A5
:101C7C001037BD4680BD00BF80B582B000AF786024
:101C8C000B46FB707B68D3F82022FB781046194674
:101C9C0001F098FE034618460837BD4680BD00BFCC
:101CAC0080B582B000AF78600B46FB70FB78002BE0
:101CBC0002D0012B13D023E07B68DB69002B07D00B
:101CCC00FFF708FB104A104B1B6923F00603136146
:101CDC007B68D3F83034184606F096FA10E07B682F
:101CEC00D3F83034184606F079FA7B68DB69002BA0
:101CFC0005D0054A044B1B6943F00603136100BF72
:101D0C000837BD4680BD00BF00ED00E080B483B055
:101D1C0000AF7860034B18460C37BD465DF8047B6A
:101D2C00704700BF1C0A002080B483B000AF7860FD
:101D3C000C37BD465DF8047B704700BF80B500AF23
:101D4C00FFF7C8FA80BD00BF80B485B000AF7860E3
:101D5C007B68D3F82032FB60FB685B6A012B01D1F6
:101D6C00002300E0022318461437BD465DF8047BBF
:101D7C00704700BF80B483B000AF03463960FB717D
:101D8C003B6812221A80034B18460C37BD465DF88F
:101D9C00047B70473000002080B483B000AF034652
:101DAC003960FB713B6804221A80034B18460C37D0
:101DBC00BD465DF8047B70475000002080B582B0B2
:101DCC0000AF03463960FB71FB79002B05D1084845
:101DDC0008493A6806F072FE04E0054805493A687D
:101DEC0006F06CFE034B18460837BD4680BD00BF9D
:101DFC002C930008DC13002080B582B000AF0346A2
:101E0C003960FB71044805493A6806F057FE034BEC
:101E1C0018460837BD4680BD44930008DC130020EB
:101E2C0080B582B000AF03463960FB71FB79002BA3
:101E3C0005D1084808493A6806F040FE04E0054818
:101E4C0005493A6806F03AFE034B18460837BD467A
:101E5C0080BD00BF58930008DC13002080B582B011
:101E6C0000AF03463960FB71FB79002B05D10848A4
:101E7C0008493A6806F022FE04E0054805493A682C
:101E8C0006F01CFE034B18460837BD4680BD00BF4C
:101E9C0068930008DC13002080B582B000AF0346C5
:101EAC003960FB71FB79002B05D1084808493A6869
:101EBC0006F004FE04E0054805493A6806F0FEFD0C
:101ECC00034B18460837BD4680BD00BF749300080D
:101EDC00DC13002080B483B000AF03463960FB7183
:101EEC003B680C221A80034B18460C37BD465DF834
:101EFC00047B70474400002080B500AF0B480C49B0
:101F0C00002205F063FF09480A4905F08BFF0748DA
:101F1C00094907F05FF80548FFF716FF0346002B49
:101F2C0002D0024805F098FF80BD00BFDC150020F0
:101F3C0010000020640000200000002080B400AFDE
:101F4C00BD465DF8047B704780B400AFFEE700BF70
:101F5C0080B400AFFEE700BF80B400AFFEE700BF67
:101F6C0080B400AFFEE700BF80B400AFBD465DF8A3
:101F7C00047B704780B400AFBD465DF8047B7047AE
:101F8C0080B400AFBD465DF8047B704780B500AFF0
:101F9C0003F0BCFA05F0D0FD80BD00BF80B500AFEA
:101FAC00014803F0AFFF80BDF00C002080B500AFFE
:101FBC00014801F07BFA80BDA80F002080B582B0EB
:101FCC0000AF244A234B1B6E43F001031366214BD5
:101FDC001B6E03F001037B607B681E4A1D4B9B6DDF
:101FEC0043F0805393651B4B9B6D03F080533B6018
:101FFC003B68032005F036FD6FF00B00002100223A
:10200C0005F03AFD6FF00A000021002205F034FDC6
:10201C006FF009000021002205F02EFD6FF0040086
:10202C000021002205F028FD6FF0030000210022A2
:10203C0005F022FD6FF001000021002205F01CFDCF
:10204C004FF0FF300021002205F016FD0837BD4689
:10205C0080BD00BF0010024080B588B000AF786032
:10206C007B681B68114A93421CD14FF44073FB6090
:10207C0012233B6101237B610323BB610423FB61BE
:10208C0007F10C030A48194603F070FA094A094B88
:10209C009B6D43F400139365064B9B6D03F4001387
:1020AC00BB60BB682037BD4680BD00BF00540040FC
:1020BC00000400480010024080B588B000AF786082
:1020CC007B681B68194A93422CD1194A184B1B6D1B
:1020DC0043F480731365164B1B6D03F48073BB6064
:1020EC00BB68CC23FB6002233B6100237B61032391
:1020FC00BB610A23FB6107F10C034FF090401946BA
:10210C0003F034FA0323FB6002233B6100237B6161
:10211C000323BB610A23FB6107F10C030548194635
:10212C0003F024FA2037BD4680BD00BF001000A08C
:10213C00001002400004004880B588B000AF786001
:10214C007B681B68104A93421BD1104A0F4B9B6D46
:10215C0043F4004393650D4B9B6D03F40043BB604C
:10216C00BB683823FB6002233B6100237B610323A4
:10217C00BB610623FB6107F10C030548194603F00C
:10218C00F5F92037BD4680BD003C004000100240F0
:10219C000004004880B582B000AF78607B681B6893
:1021AC00074A934209D1074A064B9B6D23F400431F
:1021BC0093650548382103F051FB0837BD4680BDB7
:1021CC00003C0040001002400004004880B588B07C
:1021DC0000AF78607B681B68154A934225D1154A7D
:1021EC00144B1B6E43F480431366124B1B6E03F4AB
:1021FC008043BB60BB684FF4C063FB6002233B6150
:10220C0001237B610323BB610723FB6107F10C03F3
:10221C004FF09040194603F0A9F925200021002227
:10222C0005F02AFC252005F043FC2037BD4680BD77
:10223C00003801400010024080B582B000AF7860D9
:10224C007B681B680A4A93420ED10A4A094B1B6EE3
:10225C0023F4804313664FF090404FF4C06103F0B9
:10226C00FDFA252005F032FC0837BD4680BD00BFC5
:10227C00003801400010024080B400AF124A124BEB
:10228C001B6843F0010313600F4B00229A600E4A47
:10229C000D4B1B6823F0A85323F4102313600A4B37
:1022AC004FF48052DA60084A074B1B6823F48023F2
:1022BC001360054B00229A61044B4FF000629A6048
:1022CC00BD465DF8047B70470010024000ED00E055
:1022DC0080B582B000AF78607B68002B01D1012300
:1022EC0080E07B6893F84130DBB2002B06D17B6831
:1022FC00002283F840207868FFF7AEFE7B6824222A
:10230C0083F841207B681B687A681268126822F097
:10231C0001021A607B681B687A68526822F070624E
:10232C001A617B681B687A681268926822F4004212
:10233C009A607B68DB68012B07D17B681B687A6825
:10234C00926842F400429A6006E07B681B687A68E7
:10235C00926842F404429A607B68DB68022B04D1D9
:10236C007B681B684FF400625A607B681A687B6854
:10237C001B685B6843F0007343F4004353607B6855
:10238C001B687A681268D26822F40042DA607B68B3
:10239C001B687A6811697A68526911437A68926984
:1023AC0012020A43DA607B681B687A68D1697A6822
:1023BC00126A0A431A607B681B687A681268126892
:1023CC0042F001021A607B6800225A647B6820226A
:1023DC0083F841207B6800221A637B68002283F813
:1023EC004220002318460837BD4680BD80B58CB00E
:1023FC0000AF78600023BB627B681B6803F010039E
:10240C00002B00F0DB80A34B9B6803F00C03002B2C
:10241C0040F084809F4B1B6803F00203002B05D017
:10242C007B689B69002B01D101239BE37B681A6AB3
:10243C00984B1B6803F00803002B04D0954B1B68CA
:10244C0003F0F00305E0934BD3F8943003F470637E
:10245C001B099A4223D97B681B6A184600F0F8FDC9
:10246C000346002B01D001237CE38A4A894B1B686D
:10247C0043F0080313608749864B1B6823F0F00276
:10248C007B681B6A13430B608249824B5B6823F4A5
:10249C007F427B68DB691B0213434B6022E07D4A61
:1024AC007C4B1B6843F0080313607A49794B1B681B
:1024BC0023F0F0027B681B6A13430B607549754B64
:1024CC005B6823F47F427B68DB691B0213434B6020
:1024DC007B681B6A184600F0BBFD0346002B01D03D
:1024EC0001233FE300F068FC01466A4B9B6803F054
:1024FC00F002F0237B627B6A93FAA3F33B623B6AA4
:10250C00B3FA83F322FA03F3634AD35C21FA03F39D
:10251C00624A1360002002F0DDFF4FE07B689B698C
:10252C00002B32D05B4A5B4B1B6843F001031360FA
:10253C0002F0FAFFB86208E002F0F6FF0246BB6A4E
:10254C00D31A022B01D903230CE3524B1B6803F063
:10255C000203002BF0D04F4A4E4B1B6843F008038C
:10256C0013604C494B4B1B6823F0F0027B681B6AD1
:10257C0013430B604749474B5B6823F47F427B68EE
:10258C00DB691B0213434B6018E0424A414B1B684A
:10259C0023F00103136002F0C7FFB86208E002F0F9
:1025AC00C3FF0246BB6AD31A022B01D90323D9E21B
:1025BC00384B1B6803F00203002BF0D17B681B68BF
:1025CC0003F00103002B7AD0324B9B6803F00C0311
:1025DC00082B0BD02F4B9B6803F00C030C2B12D148
:1025EC002C4BDB6803F00303032B0CD1294B1B682A
:1025FC0003F40033002B05D07B685B68002B01D102
:10260C000123AFE25BE07B685B68B3F5803F06D1EA
:10261C00204A204B1B6843F4803313601DE07B6819
:10262C005B68B3F5A02F0CD11A4A1A4B1B6843F404
:10263C0080231360174A174B1B6843F480331360D5
:10264C000BE0144A134B1B6823F480331360114ABC
:10265C00104B1B6823F4802313607B685B68002B92
:10266C0013D002F061FFB86208E002F05DFF024691
:10267C00BB6AD31A642B01D9032373E2054B1B6885
:10268C0003F40033002BF0D019E002F04DFFB862D8
:10269C000FE000BF0010024084930008540000209B
:1026AC0002F042FF0246BB6AD31A642B01D9032302
:1026BC0058E2AF4B1B6803F40033002BF0D17B685E
:1026CC001B6803F00203002B7FD0A94B9B6803F01F
:1026DC000C03042B0BD0A64B9B6803F00C030C2BA8
:1026EC0027D1A34BDB6803F00303022B21D1A04BB2
:1026FC001B6803F48063002B05D07B68DB68002B20
:10270C0001D101232EE29A48994B5B6823F0F852D1
:10271C007B6819694FF0F853FB61FB6993FAA3F3DB
:10272C00BB61BB69B3FA83F301FA03F31343436050
:10273C004BE07B68DB68002B2ED08D4A8C4B1B68E2
:10274C0043F48073136002F0EFFEB86208E002F00D
:10275C00EBFE0246BB6AD31A022B01D9032301E21A
:10276C00834B1B6803F48063002BF0D08048804BB4
:10277C005B6823F0F8527B6819694FF0F8537B6162
:10278C007B6993FAA3F33B613B69B3FA83F301FAD8
:10279C0003F31343436018E0754A754B1B6823F42D
:1027AC008073136002F0C0FEB86208E002F0BCFE59
:1027BC000246BB6AD31A022B01D90323D2E16C4B1C
:1027CC001B6803F48063002BF0D17B681B6803F05B
:1027DC000803002B3CD07B685B69002B1CD0644A3F
:1027EC00634BD3F8943043F00103C2F8943002F0F9
:1027FC009BFEB86208E002F097FE0246BB6AD31A51
:10280C00022B01D90323ADE1594BD3F8943003F0DB
:10281C000203002BEFD01BE0554A554BD3F89430F4
:10282C0023F00103C2F8943002F07EFEB86208E097
:10283C0002F07AFE0246BB6AD31A022B01D903239B
:10284C0090E14B4BD3F8943003F00203002BEFD103
:10285C007B681B6803F00403002B00F0A9800023A5
:10286C0087F82F30424B9B6D03F08053002B0ED119
:10287C003F4A3F4B9B6D43F0805393653C4B9B6DA4
:10288C0003F08053FB60FB68012387F82F30394B32
:10289C001B6803F48073002B18D1364A354B1B6828
:1028AC0043F48073136002F03FFEB86208E002F05C
:1028BC003BFE0246BB6AD31A022B01D9032351E11A
:1028CC002C4B1B6803F48073002BF0D07B689B6847
:1028DC00012B08D1264A264BD3F8903043F0010344
:1028EC00C2F8903024E07B689B68052B10D1204AFD
:1028FC001F4BD3F8903043F00403C2F890301C4ABD
:10290C001B4BD3F8903043F00103C2F890300FE02A
:10291C00174A174BD3F8903023F00103C2F89030CC
:10292C00134A134BD3F8903023F00403C2F89030C1
:10293C007B689B68002B16D002F0F6FDB8620AE0AB
:10294C0002F0F2FD0246BB6AD31A41F2883293427E
:10295C0001D9032306E1064BD3F8903003F00203B0
:10296C00002BEDD01AE002F0DFFDB8620FE000BFE3
:10297C00001002400070004002F0D6FD0246BB6A17
:10298C00D31A41F28832934201D90323EAE0774B00
:10299C00D3F8903003F00203002BEDD197F82F30D1
:1029AC00012B05D1714A714B9B6D23F080539365BC
:1029BC007B681B6803F02003002B3CD07B685B6AB0
:1029CC00002B1CD0694A694BD3F8983043F00103B3
:1029DC00C2F8983002F0A8FDB86208E002F0A4FD3D
:1029EC000246BB6AD31A022B01D90323BAE05F4B10
:1029FC00D3F8983003F00203002BEFD01BE05B4AB6
:102A0C005A4BD3F8983023F00103C2F8983002F0F7
:102A1C008BFDB86208E002F087FD0246BB6AD31A50
:102A2C00022B01D903239DE0504BD3F8983003F0CF
:102A3C000203002BEFD17B689B6A002B00F0918086
:102A4C004A4B9B6803F00C030C2B00F088807B68CE
:102A5C009B6A022B55D1454A444B1B6823F080736B
:102A6C00136002F061FDB86208E002F05DFD024601
:102A7C00BB6AD31A022B01D9032373E03B4B1B68AF
:102A8C0003F00073002BF0D138497B681B6B013BC2
:102A9C001A017B685B6B1B021A437B68DB6A1A4367
:102AAC007B68DB6B5B08013B5B051A437B681B6C2B
:102ABC005B08013B5B061A437B689B6BDB0613438D
:102ACC00CB602A4A294B1B6843F080731360274A5A
:102ADC00264BDB6843F08073D36002F025FDB862AF
:102AEC0008E002F021FD0246BB6AD31A022B01D981
:102AFC00032337E01D4B1B6803F00073002BF0D051
:102B0C002FE01A4A194B1B6823F080731360174B84
:102B1C001B6803F00063002B05D1144A134BDB68D0
:102B2C0023F00303D360114A104BDB6823F0887346
:102B3C0023F48033D36002F0F7FCB86208E002F0B3
:102B4C00F3FC0246BB6AD31A022B01D9032309E01A
:102B5C00064B1B6803F00073002BF0D101E001233E
:102B6C0000E0002318463037BD4680BD00100240FF
:102B7C0080B586B000AF7860396000237B618A4BEA
:102B8C001B6803F007023B689A4210D28649864BB9
:102B9C001B6823F007023B6813430B60824B1B68D6
:102BAC0003F007023B689A4201D00123F7E07B68EF
:102BBC001B6803F00203002B08D07C497B4B9B68FD
:102BCC0023F0F0027B689B6813438B607B681B6867
:102BDC0003F00103002B00F08F807B685B68022BF5
:102BEC0007D1724B1B6803F40033002B21D1012356
:102BFC00D5E07B685B68032B07D16C4B1B6803F03B
:102C0C000073002B15D10123C9E07B685B68002B96
:102C1C0007D1664B1B6803F00203002B09D101237B
:102C2C00BDE0624B1B6803F48063002B01D10123D0
:102C3C00B5E05E495D4B9B6823F003027B685B68E3
:102C4C0013438B6002F070FC78617B685B68022B2D
:102C5C0012D10AE002F068FC02467B69D31A41F2F9
:102C6C008832934201D9032399E0504B9B6803F0BF
:102C7C000C03082BEED13FE07B685B68032B12D171
:102C8C000AE002F051FC02467B69D31A41F2883209
:102C9C00934201D9032382E0444B9B6803F00C035D
:102CAC000C2BEED128E07B685B68002B12D10AE07C
:102CBC0002F03AFC02467B69D31A41F28832934205
:102CCC0001D903236BE0394B9B6803F00C03002BF9
:102CDC00EED111E00AE002F027FC02467B69D31A20
:102CEC0041F28832934201D9032358E02F4B9B6861
:102CFC0003F00C03042BEED12B4B1B6803F00702E3
:102D0C003B689A4210D92849274B1B6823F00702CD
:102D1C003B6813430B60244B1B6803F007023B68B2
:102D2C009A4201D001233AE07B681B6803F004034C
:102D3C00002B08D01D491D4B9B6823F4E0627B6877
:102D4C00DB6813438B607B681B6803F00803002B64
:102D5C0009D01649154B9B6823F460527B681B699C
:102D6C00DB0013438B6000F027F801460F4B9B6888
:102D7C0003F0F002F0233B613B6993FAA3F3FB6091
:102D8C00FB68B3FA83F322FA03F3094AD35C21FA02
:102D9C0003F3084A1360002002F09CFB0023184642
:102DAC001837BD4680BD00BF002002400010024015
:102DBC00849300085400002080B495B000AF002329
:102DCC00FB640023BB6400233B640223FB630223EC
:102DDC00BB6300237B64724B9B6803F00C03002BDA
:102DEC000BD06F4B9B6803F00C030C2B3DD16C4B41
:102DFC00DB6803F00303012B37D1694B1B6803F02D
:102E0C000803002B12D1664BD3F8943003F4706294
:102E1C004FF470637B637B6B93FAA3F33B633B6B65
:102E2C00B3FA83F322FA03F3FB640FE05C4B1B68E9
:102E3C0003F0F002F023FB62FB6A93FAA3F3BB628C
:102E4C00BB6AB3FA83F322FA03F3FB64554AFB6CB7
:102E5C0052F82330FB64524B9B6803F00C03002B9D
:102E6C0002D1FB6C7B6411E010E04D4B9B6803F0CE
:102E7C000C03042B02D14C4B7B6407E0484B9B6842
:102E8C0003F00C03082B01D1484B7B64444B9B682B
:102E9C0003F00C030C2B7BD1414BDB6803F00303D9
:102EAC003B643F4BDB6803F0700270237B627B6AF0
:102EBC0093FAA3F33B623B6AB3FA83F322FA03F36C
:102ECC000133BB633B6C022B02D0032B18D02FE0D9
:102EDC00354ABB6BB2FBF3F3314AD26802F4FE41C4
:102EEC004FF4FE42FA61FA6992FAA2F2BA61BA6937
:102EFC00B2FA82F221FA02F202FB03F3BB642FE076
:102F0C002A4ABB6BB2FBF3F3254AD26802F4FE41AA
:102F1C004FF4FE427A617A6992FAA2F23A613A6906
:102F2C00B2FA82F221FA02F202FB03F3BB6417E05D
:102F3C00FA6CBB6BB2FBF3F3194AD26802F4FE4194
:102F4C004FF4FE42FA60FA6892FAA2F2BA60BA68DA
:102F5C00B2FA82F221FA02F202FB03F3BB6400BF65
:102F6C000F4BDB6803F0C0624FF0C0637B607B6883
:102F7C0093FAA3F33B603B68B3FA83F322FA03F3AF
:102F8C0001335B00FB63BA6CFB6BB2FBF3F37B644A
:102F9C007B6C18465437BD465DF8047B704700BF08
:102FAC00001002409C9300080024F400001BB700A2
:102FBC0080B400AF034B1B681846BD465DF8047B1C
:102FCC00704700BF5400002080B582B000AFFFF7FF
:102FDC00EFFF01460B4B9B6803F4E0624FF4E06398
:102FEC007B607B6893FAA3F33B603B68B3FA83F393
:102FFC0022FA03F3044AD35C21FA03F31846083788
:10300C00BD4680BD001002409493000880B582B08C
:10301C0000AFFFF7CDFF01460B4B9B6803F46052EA
:10302C004FF460537B607B6893FAA3F33B603B687F
:10303C00B3FA83F322FA03F3044AD35C21FA03F3C1
:10304C0018460837BD4680BD001002409493000816
:10305C0080B586B000AF786000237B6100233B61B4
:10306C002A4B9B6D03F08053002B03D000F052F8D9
:10307C00786114E0254A254B9B6D43F08053936592
:10308C00224B9B6D03F08053FB60FB6800F042F811
:10309C0078611E4A1D4B9B6D23F0805393657B69B1
:1030AC00B3F5007F0BD17B68802B19D97B68A02BE3
:1030BC0002D902233B6113E001233B6110E07B68E2
:1030CC00802B02D903233B610AE07B68802B02D161
:1030DC0002233B6104E07B68702B01D101233B612F
:1030EC000B490B4B1B6823F007023B6913430B6026
:1030FC00074B1B6803F007023B699A4201D001237E
:10310C0000E0002318461837BD4680BD0010024071
:10311C000020024080B400AF044B1B6803F4C06372
:10312C001846BD465DF8047B704700BF0070004038
:10313C0080B485B000AF78600023FB607B68B3F58A
:10314C00007F2DD1214B1B6803F4C063B3F5007FC6
:10315C0035D01E4A1D4B1B6823F4C06343F4007327
:10316C0013601B4B1B681B4AA2FB03239B0C3222D4
:10317C0002FB03F3FB6002E0FB68013BFB60FB68B6
:10318C00002B05D0114B5B6903F48063002BF3D14A
:10319C000E4B5B6903F48063002B10D003230FE00C
:1031AC000A4B1B6803F4C063B3F5806F07D0074A62
:1031BC00064B1B6823F4C06343F480631360002345
:1031CC0018461437BD465DF8047B7047007000400C
:1031DC005400002083DE1B4380B400AF044A044B30
:1031EC005B6843F480635360BD465DF8047B7047B5
:1031FC000070004080B483B000AF786039607B68A9
:10320C0093F84130DBB2202B38D17B6893F84030F7
:10321C00012B01D1022332E07B68012283F840208C
:10322C007B68242283F841207B681B687A681268CB
:10323C00126822F001021A607B681B687A681268B7
:10324C00126822F480521A607B681B687A681268D4
:10325C0011683A680A431A607B681B687A681268BE
:10326C00126842F001021A607B68202283F8412028
:10327C007B68002283F84020002300E002231846DC
:10328C000C37BD465DF8047B704700BFF0B58BB0C2
:10329C0006AF78600023FB607B68002B01D1012313
:1032AC00DEE07B6893F8ED33DBB2002B06D17B6854
:1032BC00002283F8EC237868FEF7D2FA7B680322AD
:1032CC0083F8ED237B681B68184600F0DBFF7B68F6
:1032DC00D3F800E07E686D4606F110040FCC0FC5E4
:1032EC0094E8030085E80300331D0ECB704600F014
:1032FC009BFF7B681B681846002100F0E1FF002350
:10330C00FB6037E07A68FB685B01134428330122C9
:10331C005A71FB68D9B27A68FB685B011344283395
:10332C000A461A71FB6899B27A68FB685B01134410
:10333C0030330A461A817A68FB685B0113442833E0
:10334C000022DA717A68FB685B011344383300227F
:10335C005A607A68FB685B011344383300229A6028
:10336C007A68FB6802335B01134400225A60FB68E5
:10337C000133FB607B685A68FB689A42C2D8002311
:10338C00FB603CE07A68FB685B01134403F5027355
:10339C0000225A71FB68D9B27A68FB685B0113444E
:1033AC0003F502730A461A71FB6899B27A68FB68D6
:1033BC005B01134430330A461A817A68FB685B015F
:1033CC00134403F502730022DA717A68FB685B011F
:1033DC00134403F5067300225A607A68FB685B019C
:1033EC00134403F5067300229A607A68FB68113364
:1033FC005B01134400225A60FB680133FB60FB68DD
:10340C000E2BBFD97B68D3F800E07E686D4606F1C1
:10341C0010040FCC0FC594E8030085E80300331D9E
:10342C000ECB704600F05AFF7B68002283F82820F0
:10343C007B68012283F8ED237B681B6A012B02D188
:10344C00786802F091FB7B685B6A012B02D178688B
:10345C0002F064FB7B681B68184601F08DFF0023AB
:10346C0018461437BD46F0BD80B582B000AF786009
:10347C007B6893F8EC33012B01D1022312E07B68BB
:10348C00012283F8EC237B681B68184601F05AFF75
:10349C007B681B68184600F0D9FE7B68002283F815
:1034AC00EC23002318460837BD4680BD80B584B098
:1034BC0000AF78600023FB607B681B68184601F046
:1034CC0073FF034603F40043002B02D0786800F02E
:1034DC0085FB7B681B68184601F066FF034603F406
:1034EC008063002B12D07B681B687A681268B2F874
:1034FC00442092B222F4806292B2A3F844207868FD
:10350C00FEF724FA7868002100F046F97B681B6806
:10351C00184601F049FF034603F48043002B0BD0FF
:10352C007B681B687A681268B2F8442092B222F465
:10353C00804292B2A3F844207B681B68184601F0C5
:10354C0033FF034603F40053002B0BD07B681B683E
:10355C007A681268B2F8442092B222F4005292B205
:10356C00A3F844207B681B68184601F01DFF034636
:10357C0003F48053002B57D07B681B687A68126861
:10358C00B2F8402092B222F0040292B2A3F840208A
:10359C004FF43F43FB607B681B68FA6892B2A3F858
:1035AC0040207B681B6A012B22D1FB6843F080030F
:1035BC00FB607B681B68BB607B680122C3F8282416
:1035CC007B68002283F82024BB68B3F854309BB28C
:1035DC0043F001039AB2BB68A3F85420BB68B3F85C
:1035EC0054309BB243F002039AB2BB68A3F8542048
:1035FC007B6893F82034012B07D17B68002283F879
:10360C00202478680021FEF74BFB7868FEF7DAF986
:10361C007B681B687A681268B2F8442092B222F474
:10362C00805292B2A3F844207B681B68184601F0C4
:10363C00BBFE034603F40063002B30D07B681B6891
:10364C007A681268B2F8442092B222F4006292B204
:10365C00A3F844207B681B687A681268B2F8402093
:10366C0092B242F0080292B2A3F840207B681B6829
:10367C007A681268B2F8402092B242F0040292B218
:10368C00A3F840207B681B68184601F08DFE0346AA
:10369C0003F48053002B02D17868FEF779F97B682C
:1036AC001B68184601F080FE034603F08003002BD4
:1036BC0040D07B681B687A681268B2F8442092B2DA
:1036CC0022F0800292B2A3F844207B6893F8203455
:1036DC00002B2CD17B681B687A681268B2F84020EA
:1036EC0092B242F0040292B2A3F840207B681B68AD
:1036FC007A681268B2F8402092B242F0080292B294
:10370C00A3F840207B68012283F820247B681B6887
:10371C00B3F854309BB203F0F0039B101A467B684D
:10372C00C3F8242478680121FEF7BAFA02E078681D
:10373C00FEF72EF97B681B68184601F035FE034630
:10374C0003F40073002B0ED07B681B687A68126838
:10375C00B2F8442092B222F4007292B2A3F8442040
:10376C007868FEF7E5F87B681B68184601F01CFECC
:10377C00034603F48073002B0BD07B681B687A68BC
:10378C001268B2F8442092B222F4807292B2A3F87A
:10379C0044201037BD4680BD80B582B000AF786044
:1037AC000B46FB707B6893F8EC33012B01D10223A1
:1037BC0013E07B68012283F8EC237B68FA7883F8AA
:1037CC0028207B681A68FB781046194601F0A6FD84
:1037DC007B68002283F8EC23002318460837BD468B
:1037EC0080BD00BF80B584B000AF7860084611463C
:1037FC001A460346FB700B463B801346BB700023F6
:10380C00FB720023FB60FB785BB2002B09DAFB78C0
:10381C0003F07F035B0128337A6813440433FB60A5
:10382C0009E0FB7803F07F035B0103F502737A6810
:10383C0013440433FB60FB7803F07F03DAB2FB68BC
:10384C001A70FB78DB09DBB21A46FB685A703A88AF
:10385C00FB681A61FB68BA78DA707B6893F8EC3312
:10386C00012B01D102230EE07B68012283F8EC23AB
:10387C007B681B681846F96800F052FD7B680022D3
:10388C0083F8EC23FB7A18461037BD4680BD00BF89
:10389C0080B584B000AF78600B46FB700023FB60F2
:1038AC00FB785BB2002B09DAFB7803F07F035B013A
:1038BC0028337A6813440433FB6009E0FB7803F087
:1038CC007F035B0103F502737A6813440433FB60D6
:1038DC00FB7803F07F03DAB2FB681A70FB78DB0924
:1038EC00DBB21A46FB685A707B6893F8EC33012BF9
:1038FC0001D102230EE07B68012283F8EC237B6864
:10390C001B681846F96801F01FF87B68002283F8E1
:10391C00EC23002318461037BD4680BD80B586B019
:10392C0000AFF8607A603B600B46FB7200237B6152
:10393C00FB7A03F07F035B0103F50273FA6813440F
:10394C0004337B617B697A685A617B693A689A6156
:10395C007B690022DA617B6900225A70FB7A03F0E2
:10396C007F03DAB27B691A70FB6893F8EC33012B96
:10397C0001D1022322E0FB68012283F8EC23FB7ABD
:10398C0003F07F03002B0AD1FB681A68FB68DB6825
:10399C00DBB2104679691A4601F09EF909E0FB6822
:1039AC001A68FB68DB68DBB2104679691A4601F0CD
:1039BC0093F9FB68002283F8EC2300231846183790
:1039CC00BD4680BD80B483B000AF78600B46FB7001
:1039DC00FB7803F07F037A6811335B0113449B6817
:1039EC009BB218460C37BD465DF8047B704700BF90
:1039FC0080B586B000AFF8607A603B600B46FB7216
:103A0C0000237B61FB7A03F07F035B012833FA68A8
:103A1C00134404337B617B697A685A617B693A6829
:103A2C009A617B690022DA617B6901225A70FB7A08
:103A3C0003F07F03DAB27B691A70FB6893F8EC33FE
:103A4C00012B01D1022322E0FB68012283F8EC2335
:103A5C00FB7A03F07F03002B0AD1FB681A68FB6822
:103A6C00DB68DBB2104679691A4601F035F909E0DA
:103A7C00FB681A68FB68DB68DBB2104679691A468A
:103A8C0001F02AF9FB68002283F8EC230023184686
:103A9C001837BD4680BD00BF80B584B000AF7860DC
:103AAC000B46FB700023FB60FB785BB2002B09DA42
:103ABC00FB7803F07F035B0128337A6813440433EB
:103ACC00FB6007E0FB785B0103F502737A68134433
:103ADC000433FB60FB6801229A70FB7803F07F03D0
:103AEC00DAB2FB681A70FB78DB09DBB21A46FB68AA
:103AFC005A707B6893F8EC33012B01D1022320E040
:103B0C007B68012283F8EC237B681B681846F968F4
:103B1C0001F00CFBFB7803F07F03002B0CD17B68CE
:103B2C0019687B68DB68DAB27B6803F57C7308463E
:103B3C0011461A4601F04AFC7B68002283F8EC23FC
:103B4C00002318461037BD4680BD00BF80B584B039
:103B5C0000AF78600B46FB700023FB60FB785BB218
:103B6C00002B09DAFB7803F07F035B0128337A68BA
:103B7C0013440433FB6007E0FB785B0103F502732D
:103B8C007A6813440433FB60FB6800229A70FB785C
:103B9C0003F07F03DAB2FB681A70FB78DB09DBB247
:103BAC001A46FB685A707B6893F8EC33012B01D1F1
:103BBC0002230EE07B68012283F8EC237B681B68F0
:103BCC001846F96801F012FB7B68002283F8EC239D
:103BDC00002318461037BD4680BD00BF90B589B094
:103BEC0000AF78600023BB610023FB830023FB75CF
:103BFC000023FB810023BB8105E3FB899BB2DBB275
:103C0C0003F00F03FB75FB7D002B40F02281FB8939
:103C1C009BB203F01003002B4BD17B681A687B68B6
:103C2C001B681B889BB223F4E14323F070039BB207
:103C3C0013807B682C33BB617B681B68B3F85030F6
:103C4C009BB21A46BB691B78DB0013441A467B688F
:103C5C001B68134403F202431B88C3F30902BB69BC
:103C6C00DA61BB695A69BB69DB691A44BB695A6181
:103C7C0078680021FDF744FE7B6893F82830DBB2AE
:103C8C00002B00F0C082BB699B69002B40F0BB820B
:103C9C007B681B687A6892F82820D2B262F07F02A7
:103CAC00D2B292B2A3F84C207B68002283F8282071
:103CBC00A9E27B6803F50373BB617B681B681B88F7
:103CCC009BB2BB81BB899BB203F40063002B2FD04A
:103CDC007B681B68B3F850309BB21A46BB691B78E3
:103CEC00DB0013441A467B681B68134403F206433B
:103CFC001B88C3F30902BB69DA617B6818687B68AF
:103D0C0003F57C71BB699A88BB69DB699BB201F0D6
:103D1C00A5FB7B681A687B681B681B8899B240F608
:103D2C008F730B409BB213807868FDF7BDFD6AE280
:103D3C00BB899BB29BB21BB2002B80F264827B6866
:103D4C001A687B681B681B8899B240F68F730B400E
:103D5C009BB213807B681B68B3F850309BB21A4639
:103D6C00BB691B78DB0013441A467B681B68134441
:103D7C0003F206431B88C3F30902BB69DA61BB6912
:103D8C00DB69002B11D07B681868BB695969BB696A
:103D9C009A88BB69DB699BB201F060FBBB695A690D
:103DAC00BB69DB691A44BB695A6178680021FDF76D
:103DBC008DFD7B681B68B3F850309BB21A467B684C
:103DCC001B68134403F206433B61BB691B693E2B22
:103DDC0017D9BB691B695B09BB83BB691B6903F002
:103DEC001F03002B02D1BB8B013BBB83BB8B9B0204
:103DFC009BB26FEA43436FEA53439AB23B691A8012
:103E0C0011E0BB691B695B08BB83BB691B6903F0D1
:103E1C000103002B02D0BB8B0133BB83BB8B9B02FA
:103E2C009AB23B691A807B681B681B889BB223F48F
:103E3C00804323F070039CB284F480539CB284F4CE
:103E4C0000539CB27B681A689A4B23439BB2138035
:103E5C00D9E17B681B681A46FB7D9B0013441B88C9
:103E6C009BB2BB81BB899BB29BB21BB2002B80F275
:103E7C00D4807B681B681A46FB7D9B001A447B68C8
:103E8C001B681946FB7D9B000B441B8899B240F6BE
:103E9C008F730B409BB21380FB7D5B0103F50273A8
:103EAC007A6813440433BB61BB699B7A002B20D125
:103EBC007B681B68B3F850309BB21A46BB691B7801
:103ECC00DB0013441A467B681B68134403F2064359
:103EDC001B88C3F30903FB83FB8B002B78D07B6817
:103EEC001868BB695969BB699A88FB8B01F0B6FAF3
:103EFC006EE07B681B681A46BB691B789B001344F9
:103F0C001B889BB203F48043002B20D07B681B687A
:103F1C00B3F850309BB21A46BB691B78DB001344D4
:103F2C001A467B681B68134403F202431B88C3F3D5
:103F3C000903FB83FB8B002B29D07B681868BB69BA
:103F4C005969BB69DA88FB8B01F088FA1FE07B6842
:103F5C001B68B3F850309BB21A46BB691B78DB0068
:103F6C0013441A467B681B68134403F206431B88F0
:103F7C00C3F30903FB83FB8B002B08D07B68186809
:103F8C00BB695969BB691A89FB8B01F067FA7B68BD
:103F9C001B681A46BB691B789B001A447B681B681C
:103FAC001946BB691B789B000B441B889BB29BB2C8
:103FBC0023F0F0031B051B0D9BB243F07F4343F42E
:103FCC007F0343F4004343F0C0039BB29BB21380C6
:103FDC00BB69DA69FB8B1A44BB69DA61BB695A6944
:103FEC00FB8B1A44BB695A61BB699B69002B04D0DB
:103FFC00FA8BBB691B699A4206D2BB691B7878683D
:10400C001946FDF763FC08E0BB691978BB695A696E
:10401C00BB699B697868FFF781FCBB899BB203F095
:10402C008003002B00F0EF80FB7D5B0128337A6866
:10403C0013440433BB617B681B681A46FB7D9B00F1
:10404C001A447B681B681946FB7D9B000B441B883C
:10405C009BB223F4E14323F070039BB21380BB6942
:10406C009B7A002B28D17B681B68B3F850309BB22D
:10407C001A46BB691B78DB0013441A467B681B6825
:10408C00134403F202431B88C3F30902BB69DA61D0
:10409C00BB69DB69002B00F086807B681868BB6904
:1040AC005969BB699A88BB69DB699BB201F09CF9C1
:1040BC0079E000BF8080FFFF7B681B681A46BB69F4
:1040CC001B789B0013441B889BB203F04003002B0E
:1040DC0024D07B681B68B3F850309BB21A46BB697E
:1040EC001B78DB0013441A467B681B68134403F2ED
:1040FC0002431B88C3F30902BB69DA61BB69DB6944
:10410C00002B2FD07B681868BB695969BB69DA88AA
:10411C00BB69DB699BB201F067F923E07B681B6824
:10412C00B3F850309BB21A46BB691B78DB001344C2
:10413C001A467B681B68134403F206431B88C3F3BF
:10414C000902BB69DA61BB69DB69002B0AD07B68A9
:10415C001868BB695969BB691A89BB69DB699BB271
:10416C0001F042F97B681B681A46BB691B789B00FF
:10417C001A447B681B681946BB691B789B000B446F
:10418C001B889BB29BB223F0F0031B051B0D9BB24B
:10419C0043F07F4343F47F0343F4404343F08003F5
:1041AC009BB29BB213807B681B68B3F850309BB2F8
:1041BC001A46BB691B78DB0013441A467B681B68E4
:1041CC00134403F202431B88C3F30902BB69DA618F
:1041DC00BB695A69BB69DB691A44BB695A61BB6923
:1041EC009B69002B06D1BB691B7878681946FDF7D3
:1041FC0087FB08E0BB691978BB695A69BB699B6985
:10420C007868FFF7F5FB7B681B68B3F844309BB20A
:10421C001A46FA819BB21BB2002BFFF6EEAC0023C0
:10422C0018462437BD4690BD84B080B483B000AF2F
:10423C00786007F1140080E80E00002318460C3754
:10424C00BD465DF8047B04B0704700BF80B485B0F8
:10425C0000AF78600023FB604FF43D43FB607B684C
:10426C00B3F840309AB2FB689BB213439AB27B68A6
:10427C00A3F84020002318461437BD465DF8047B94
:10428C00704700BF80B485B000AF78600023FB603E
:10429C004FF43D43FB607B68B3F840309AB2FB6847
:1042AC009BB2DB439BB213409AB27B68A3F84020CD
:1042BC00002318461437BD465DF8047B704700BFD9
:1042CC0080B483B000AF78600B46FB7000231846B7
:1042DC000C37BD465DF8047B704700BF84B080B4DA
:1042EC0083B000AF786007F1140080E80E007B68A3
:1042FC000122A3F840207B680022A3F840207B68B1
:10430C000022A3F844207B680022A3F8502000234D
:10431C0018460C37BD465DF8047B04B0704700BFEF
:10432C0090B484B000AF786039603B68DB78032BC5
:10433C0065D801A252F823F055430008DB4300086E
:10434C0085430008AB4300087B683A6812789200FA
:10435C001A447B683968097889000B441B889BB226
:10436C009BB223F4EC4323F070039BB243F4007331
:10437C009BB29BB2138043E07B683A681278920040
:10438C001A447B683968097889000B441B889BB2F6
:10439C0023F4EC4323F070039BB2138030E07B6872
:1043AC003A68127892001A447B6839680978890057
:1043BC000B441B889BB29BB223F4EC4323F0700399
:1043CC009BB243F4C0639BB29BB2138018E07B6832
:1043DC003A68127892001A447B6839680978890027
:1043EC000B441B889BB29BB223F4EC4323F0700369
:1043FC009BB243F480639BB29BB2138000E000BF7E
:10440C007B683A68127892001A447B68396809789C
:10441C0089000B441B889BB29BB223F0F0031B0555
:10442C001B0D9BB243F07F4343F47F0343F40043E3
:10443C0043F0800399B23B681B789BB20B439BB251
:10444C009BB213803B689B7A002B40F0F3803B6857
:10445C005B78002B55D07B68B3F850309BB21A4672
:10446C003B681B78DB0013441A467B68134403F546
:10447C0080631A463B689B8823F001039BB2138030
:10448C007B683A681278920013441B889BB203F045
:10449C004003002B1CD07B683A68127892001A44B7
:1044AC007B683968097889000B441B889BB29BB2E6
:1044BC0023F0F0031B051B0D9BB243F07F4343F429
:1044CC007F0343F4004343F0C0039BB29BB21380C1
:1044DC007B683A681278920013441B889BB223F4D1
:1044EC00E04323F040039CB284F020039CB27B6831
:1044FC003A68127892001A444D4B23439BB21380B6
:10450C0019E27B68B3F850309BB21A463B681B78B3
:10451C00DB0013441A467B68134403F204431A4627
:10452C003B689B8823F001039BB213807B68B3F834
:10453C0050309BB21A463B681B78DB0013441A467A
:10454C007B68134403F20643BB603B681B693E2B3C
:10455C0017D93B681B695B09FB813B681B6903F03E
:10456C001F03002B02D1FB89013BFB81FB899B02C2
:10457C009BB26FEA43436FEA53439AB2BB681A800B
:10458C0011E03B681B695B08FB813B681B6903F00E
:10459C000103002B02D0FB890133FB81FB899B02B9
:1045AC009AB2BB681A807B683A68127892001344FE
:1045BC001B889BB203F48043002B1CD07B683A68A9
:1045CC00127892001A447B683968097889000B4488
:1045DC001B889BB29BB223F0F0031B051B0D9BB2F7
:1045EC0043F07F4343F47F0343F4404343F08003A1
:1045FC009BB29BB213807B683A681278920013448A
:10460C001B889BB223F4804323F070039CB284F488
:10461C0080539CB284F400539CB27B683A68127845
:10462C0092001A44024B23439BB2138083E100BFD8
:10463C008080FFFF7B683A68127892001A447B688E
:10464C003968097889000B441B889BB29BB223F410
:10465C00F8731B051B0D9BB243F07F4343F47F03A0
:10466C0043F4014343F080039BB29BB213807B68FD
:10467C00B3F850309BB21A463B681B78DB001344EE
:10468C001A467B68134403F580631A463B68DB8843
:10469C0023F001039BB213807B68B3F850309BB2BC
:1046AC001A463B681B78DB0013441A467B6813449C
:1046BC0003F204431A463B681B8923F001039BB2A7
:1046CC0013803B685B78002B40F09E807B683A68D7
:1046DC001278920013441B889BB203F48043002B86
:1046EC001CD07B683A68127892001A447B6839684F
:1046FC00097889000B441B889BB29BB223F0F00312
:10470C001B051B0D9BB243F07F4343F47F0343F423
:10471C00404343F080039BB29BB213807B683A68A2
:10472C001278920013441B889BB203F04003002BB9
:10473C001CD07B683A68127892001A447B683968FE
:10474C00097889000B441B889BB29BB223F0F003C1
:10475C001B051B0D9BB243F07F4343F47F0343F4D3
:10476C00004343F0C0039BB29BB213807B683A6852
:10477C00127892001A447B683968097889000B44D6
:10478C001B889BB29BB223F0F0031B051B0D9BB245
:10479C0043F07F4343F47F0343F4004343F0C003EF
:1047AC009BB29BB213807B683A68127892001344D8
:1047BC001B889BB223F4804323F070039CB284F4D7
:1047CC0080539CB284F400539CB27B683A68127894
:1047DC0092001A445B4B23439BB213807B683A686C
:1047EC001278920013441B889BB223F4E04323F00D
:1047FC0040039CB27B683A68127892001A44514B81
:10480C0023439BB2138096E07B683A68127892003F
:10481C0013441B889BB203F48043002B1CD07B6891
:10482C003A68127892001A447B68396809788900D2
:10483C000B441B889BB29BB223F0F0031B051B0D92
:10484C009BB243F07F4343F47F0343F4404343F074
:10485C0080039BB29BB213807B683A6812789200FB
:10486C0013441B889BB203F04003002B1CD07B68C5
:10487C003A68127892001A447B6839680978890082
:10488C000B441B889BB29BB223F0F0031B051B0D42
:10489C009BB243F07F4343F47F0343F4004343F064
:1048AC00C0039BB29BB213807B683A68127892006B
:1048BC001A447B683968097889000B441B889BB2C1
:1048CC009BB223F0F0031B051B0D9BB243F07F43FF
:1048DC0043F47F0343F4404343F080039BB29BB209
:1048EC0013807B683A681278920013441B889BB241
:1048FC0023F4E04323F040039CB27B683A681278BF
:10490C0092001A440F4B23439BB213807B683A6886
:10491C001278920013441B889BB223F4804323F03B
:10492C0070039CB27B683A68127892001A44054B6B
:10493C0023439BB21380002318461037BD4690BC0E
:10494C00704700BF8080FFFF90B482B000AF7860EA
:10495C0039603B689B7A002B7FD13B685B78002BDE
:10496C003DD07B683A681278920013441B889BB246
:10497C0003F04003002B1CD07B683A68127892003D
:10498C001A447B683968097889000B441B889BB2F0
:10499C009BB223F0F0031B051B0D9BB243F07F432E
:1049AC0043F47F0343F4004343F0C0039BB29BB238
:1049BC0013807B683A681278920013441B889BB270
:1049CC0023F4E04323F040039CB27B683A681278EE
:1049DC0092001A446F4B23439BB2138073E17B68A4
:1049EC003A681278920013441B889BB203F48043FC
:1049FC00002B1CD07B683A68127892001A447B68B2
:104A0C003968097889000B441B889BB29BB223F050
:104A1C00F0031B051B0D9BB243F07F4343F47F0354
:104A2C0043F4404343F080039BB29BB213807B68FA
:104A3C003A681278920013441B889BB223F480438B
:104A4C0023F070039CB27B683A68127892001A4487
:104A5C00504B23439BB2138035E13B685B78002BB2
:104A6C0040F09A807B683A681278920013441B8855
:104A7C009BB203F48043002B1CD07B683A681278FD
:104A8C0092001A447B683968097889000B441B88AA
:104A9C009BB29BB223F0F0031B051B0D9BB243F0A2
:104AAC007F4343F47F0343F4404343F080039BB2C2
:104ABC009BB213807B683A681278920013441B886F
:104ACC009BB203F04003002B1CD07B683A68127831
:104ADC0092001A447B683968097889000B441B885A
:104AEC009BB29BB223F0F0031B051B0D9BB243F052
:104AFC007F4343F47F0343F4004343F0C0039BB272
:104B0C009BB213807B683A68127892001A447B68D7
:104B1C003968097889000B441B889BB29BB223F03F
:104B2C00F0031B051B0D9BB243F07F4343F47F0343
:104B3C0043F4004343F0C0039BB29BB213807B68E9
:104B4C003A681278920013441B889BB223F480437A
:104B5C0023F070039CB27B683A68127892001A4476
:104B6C000C4B23439BB213807B683A6812789200FB
:104B7C0013441B889BB223F4E04323F040039CB204
:104B8C007B683A68127892001A44024B23439BB21A
:104B9C00138098E08080FFFF7B683A68127892005F
:104BAC0013441B889BB203F48043002B1CD07B68FE
:104BBC003A68127892001A447B683968097889003F
:104BCC000B441B889BB29BB223F0F0031B051B0DFF
:104BDC009BB243F07F4343F47F0343F4404343F0E1
:104BEC0080039BB29BB213807B683A681278920068
:104BFC0013441B889BB203F04003002B1CD07B6832
:104C0C003A68127892001A447B68396809788900EE
:104C1C000B441B889BB29BB223F0F0031B051B0DAE
:104C2C009BB243F07F4343F47F0343F4004343F0D0
:104C3C00C0039BB29BB213807B683A6812789200D7
:104C4C001A447B683968097889000B441B889BB22D
:104C5C009BB223F0F0031B051B0D9BB243F07F436B
:104C6C0043F47F0343F4404343F080039BB29BB275
:104C7C0013807B683A681278920013441B889BB2AD
:104C8C0023F4E04323F040039CB27B683A6812782B
:104C9C0092001A440F4B23439BB213807B683A68F3
:104CAC001278920013441B889BB223F4804323F0A8
:104CBC0070039CB27B683A68127892001A44054BD8
:104CCC0023439BB21380002318460837BD4690BC83
:104CDC00704700BF8080FFFF90B58DB000AFF860CB
:104CEC00B9601346FB710023FB85BB689B69BB62F3
:104CFC00BB685B78012B40F05281BB689A69BB683A
:104D0C001B699A4209D9BB681B69BB62BB689A696B
:104D1C00BB6AD21ABB689A6105E0BB689B69BB622F
:104D2C00BB6800229A61BB689B7A002B1AD1BB68C6
:104D3C005969BB689A88BB6A9BB2F86800F054FB4F
:104D4C00FB68B3F850309BB21A46BB681B78DB008B
:104D5C0013441A46FB68134403F20243BA6A92B234
:104D6C001A8000E1FB68BA681278920013441B8821
:104D7C009BB203F04003002B55D0BB685B78002B33
:104D8C0038D1FB68B3F850309BB21A46BB681B781D
:104D9C00DB0013441A46FB68134403F20643FB6121
:104DAC00BB6A3E2B15D9BB6A5B09FB84BB6A03F05B
:104DBC001F03002B02D1FB8C013BFB84FB8C9B0261
:104DCC009BB26FEA43436FEA53439AB2FB691A8072
:104DDC0025E0BB6A5B08FB84BB6A03F00103002B74
:104DEC0002D0FB8C0133FB84FB8C9B029AB2FB69D7
:104DFC001A8014E0BB685B78012B10D1FB68B3F808
:104E0C0050309BB21A46BB681B78DB0013441A4621
:104E1C00FB68134403F20243BA6A92B21A80BB686D
:104E2C001B89FB8554E0BB685B78002B38D1FB6891
:104E3C00B3F850309BB21A46BB681B78DB001344A6
:104E4C001A46FB68134403F20243BB61BB6A3E2B58
:104E5C0015D9BB6A5B09BB84BB6A03F01F03002B2B
:104E6C0002D1BB8C013BBB84BB8C9B029BB26FEA17
:104E7C0043436FEA53439AB2BB691A8025E0BB6A7D
:104E8C005B08BB84BB6A03F00103002B02D0BB8C14
:104E9C000133BB84BB8C9B029AB2BB691A8014E0B1
:104EAC00BB685B78012B10D1FB68B3F850309BB218
:104EBC001A46BB681B78DB0013441A46FB68134484
:104ECC0003F20243BA6A92B21A80BB68DB88FB8594
:104EDC00BB685969BB6A9BB2FA8DF86800F084FA1A
:104EEC00BB685B78002B1DD1FB68BA681278920006
:104EFC001A44FB68B968097889000B441B889BB27B
:104F0C009BB223F0F0031B051B0D9BB243F07F43B8
:104F1C0043F47F0343F4004343F0C0039BB29BB2C2
:104F2C00138020E0BB685B78012B1CD1FB68BA684E
:104F3C00127892001A44FB68B968097889000B440E
:104F4C001B889BB29BB223F0F0031B051B0D9BB27D
:104F5C0043F07F4343F47F0343F4404343F0800327
:104F6C009BB29BB21380FB68BA6812789200134410
:104F7C001B889BB223F4E04323F040039CB284F0E3
:104F8C0010039CB284F020039CB2FB68BA681278C0
:104F9C0092001A44644B23439BB21380BFE0BB685E
:104FAC009A69BB681B699A4209D9BB681B69BB62C9
:104FBC00BB689A69BB6AD21ABB689A6105E0BB6888
:104FCC009B69BB62BB6800229A61BB689B7A002B11
:104FDC0038D1FB68B3F850309BB21A46BB681B78CB
:104FEC00DB0013441A46FB68134403F206437B614F
:104FFC00BB6A3E2B15D9BB6A5B097B84BB6A03F089
:10500C001F03002B02D17B8C013B7B847B8C9B028E
:10501C009BB26FEA43436FEA53439AB27B691A809F
:10502C0062E0BB6A5B087B84BB6A03F00103002B64
:10503C0002D07B8C01337B847B8C9B029AB27B6984
:10504C001A8051E0BB685B78002B38D1FB68B3F851
:10505C0050309BB21A46BB681B78DB0013441A46CF
:10506C00FB68134403F206433B61BB6A3E2B15D924
:10507C00BB6A5B093B84BB6A03F01F03002B02D1A4
:10508C003B8C013B3B843B8C9B029BB26FEA4343C2
:10509C006FEA53439AB23B691A8025E0BB6A5B08FE
:1050AC003B84BB6A03F00103002B02D03B8C013321
:1050BC003B843B8C9B029AB23B691A8014E0BB6820
:1050CC005B78012B10D1FB68B3F850309BB21A46B9
:1050DC00BB681B78DB0013441A46FB68134403F2CD
:1050EC000243BA6A92B21A80FB68BA6812789200CC
:1050FC0013441B889BB223F4804323F070039CB2AF
:10510C0084F480539CB284F400539CB2FB68BA685C
:10511C00127892001A44044B23439BB21380002351
:10512C0018463437BD4690BD8080FFFF90B482B0E6
:10513C0000AF786039603B681B78002B18D17B6816
:10514C003A681278920013441B889BB24BF6BF74DA
:10515C001C4084F4805484F010047B683A68127804
:10516C0092001A44A1B2204B0B439BB2138034E043
:10517C003B685B78002B18D07B683A6812789200F9
:10518C0013441B889BB223F4E04323F040039CB2EE
:10519C0084F010039CB27B683A68127892001A442F
:1051AC00114B23439BB2138017E07B683A6812784B
:1051BC00920013441B889BB223F4804323F07003AA
:1051CC009CB284F480539CB27B683A68127892004B
:1051DC001A44054B23439BB213800023184608370F
:1051EC00BD4690BC704700BF8080FFFF90B482B07A
:1051FC0000AF786039603B685B78002B43D07B68EC
:10520C003A681278920013441B889BB203F0400357
:10521C00002B1CD07B683A68127892001A447B6889
:10522C003968097889000B441B889BB29BB223F028
:10523C00F0031B051B0D9BB243F07F4343F47F032C
:10524C0043F4004343F0C0039BB29BB213807B68D2
:10525C003A681278920013441B889BB223F4E04303
:10526C0023F040039CB284F010039CB284F0200322
:10527C009CB27B683A68127892001A44264B2343FE
:10528C009BB2138042E07B683A6812789200134418
:10529C001B889BB203F48043002B1CD07B683A68BC
:1052AC00127892001A447B683968097889000B449B
:1052BC001B889BB29BB223F0F0031B051B0D9BB20A
:1052CC0043F07F4343F47F0343F4404343F08003B4
:1052DC009BB29BB213807B683A681278920013449D
:1052EC001B889BB223F4804323F070039CB284F49C
:1052FC0080539CB284F400539CB27B683A68127859
:10530C0092001A44044B23439BB21380002318468B
:10531C000837BD4690BC70478080FFFF80B483B0D7
:10532C0000AF78600B46FB70FB78002B03D17B68D9
:10533C008022A3F84C20002318460C37BD465DF89C
:10534C00047B704780B483B000AF7860094A094B86
:10535C00B3F858309BB26FEA43436FEA53439BB2A6
:10536C00A2F85830002318460C37BD465DF8047B74
:10537C00704700BF0068004080B483B000AF786015
:10538C00084A084BB3F858309BB2C3F30E039BB2D8
:10539C00A2F85830002318460C37BD465DF8047B44
:1053AC00704700BF0068004080B485B000AF7860E3
:1053BC000023FB607B68B3F844309BB2FB60FB6856
:1053CC0018461437BD465DF8047B704780B485B031
:1053DC0000AFF8600B467A60FB7200231846143756
:1053EC00BD465DF8047B704780B489B000AFF860AF
:1053FC00B96011461A460B46FB801346BB80BB882E
:10540C0001335B107B61FA88FB68134403F58063FE
:10541C00BB617B69FB6118E0BB681B787B82BB6856
:10542C000133BB60BB681B781B029AB27B8A1343A7
:10543C009BB23B82BB699A1CBA613A8A1A80BB68E0
:10544C000133BB60FB69013BFB61FB69002BE3D1C2
:10545C002437BD465DF8047B704700BF80B489B02B
:10546C0000AFF860B96011461A460B46FB80134634
:10547C00BB80BB8801335B107B61FA88FB681344EB
:10548C0003F58063BB617B69FB610DE0BB685A1C53
:10549C00BA60BA69911CB96112881A80BB68013371
:1054AC00BB60FB69013BFB61FB69002BEED1243730
:1054BC00BD465DF8047B704780B500AF032002F059
:1054CC00D1FA002000F006F8FCF778FD002318460E
:1054DC0080BD00BF80B582B000AF7860094B1B68FF
:1054EC00094AA2FB03239B09184602F0FDFA4FF070
:1054FC00FF307968002202F0BFFA00231846083703
:10550C00BD4680BD54000020D34D621080B400AF66
:10551C00044B1B680133034A1360BD465DF8047BE2
:10552C00704700BF0018002080B400AF034B1B680D
:10553C001846BD465DF8047B704700BF001800207C
:10554C0080B584B000AF78600023FB60FFF7ECFF00
:10555C00F86000BFFFF7E8FF0246FB68D21A7B68D1
:10556C009A42F7D31037BD4680BD00BF80B487B0D8
:10557C0000AF7860396000237B610023FB6000235F
:10558C003B6150E13B681A687B69012101FA03F326
:10559C001340FB60FB68002B00F042813B685B68AA
:1055AC00022B03D03B685B68122B22D17B69DA0893
:1055BC007B68083253F822303B617B6903F00703A8
:1055CC009B001A460F239340DB433A6913403B611F
:1055DC003B681B697A6902F00702920093403A69B2
:1055EC0013433B617B69DA087B680832396943F8FD
:1055FC0022107B681B683B617B695B001A460323A6
:10560C009340DB433A6913403B613B685B6803F0B2
:10561C0003037A69520093403A6913433B617B68F8
:10562C003A691A603B685B68012B0BD03B685B687E
:10563C00022B07D03B685B68112B03D03B685B687F
:10564C00122B2FD17B689B683B617B695B001A46F0
:10565C0003239340DB433A6913403B613B68DB68AF
:10566C007A69520093403A6913433B617B683A690B
:10567C009A607B685B683B617B69012202FA03F3E9
:10568C00DB433A6913403B613B685B6803F01003F2
:10569C001A097B6902FA03F33A6913433B617B688D
:1056AC003A695A607B68DB683B617B695B001A4630
:1056BC0003239340DB433A6913403B613B689B688F
:1056CC007A69520093403A6913433B617B683A69AB
:1056DC00DA603B685B6803F08053002B00F0A0801D
:1056EC00574A574B1B6E43F001031366544B1B6E0A
:1056FC0003F00103BB60BB68524A7B699B08023311
:10570C0052F823303B617B6903F003039B001A467C
:10571C000F239340DB433A6913403B617B68B3F141
:10572C00904F19D07B68484A934213D07B68474A04
:10573C0093420DD07B68464A934207D07B68454A1A
:10574C00934201D1042308E0072306E0032304E07D
:10575C00022302E0012300E000237A6902F0030235
:10576C00920093403A6913433B6136497B699B082D
:10577C0002333A6941F82320374B1B683B61FB68C5
:10578C00DB433A6913403B613B685B6803F480334D
:10579C00002B03D03A69FB6813433B612E4A3B69EB
:1057AC0013602D4B5B683B61FB68DB433A6913402C
:1057BC003B613B685B6803F40033002B03D03A6910
:1057CC00FB6813433B61244A3B695360224B9B6843
:1057DC003B61FB68DB433A6913403B613B685B68A8
:1057EC0003F48013002B03D03A69FB6813433B612D
:1057FC00194A3B699360184BDB683B61FB68DB43E0
:10580C003A6913403B613B685B6803F40013002B5F
:10581C0003D03A69FB6813433B610F4A3B69D36081
:10582C007B6901337B613B681A687B6922FA03F35D
:10583C00002B7FF4A7AE1C37BD465DF8047B704788
:10584C00001002400000014000040048000800481D
:10585C00000C0048001000480004014080B487B0E0
:10586C0000AF7860396000237B6100233B6100232B
:10587C00FB60B7E07B6901229A403B6813403B61B7
:10588C003B69002B00F0AB807B681A687B695B007E
:10589C00194603238B401A437B681A607B69DA082C
:1058AC007B69D9087B68083153F821107B6903F0B8
:1058BC0007039B0018460F238340DB4319407B688A
:1058CC00083243F822107B689A687B695B001946A2
:1058DC0003238B40DB431A407B689A607B685A68D1
:1058EC007B69012101FA03F3DB431A407B685A60A0
:1058FC007B68DA687B695B00194603238B40DB43CA
:10590C001A407B68DA603D4A7B699B08023352F887
:10591C002330FB607B6903F003039B001A460F23C3
:10592C009340FA681340FB607B68B3F1904F19D039
:10593C007B68334A934213D07B68324A93420DD032
:10594C007B68314A934207D07B68304A934201D13D
:10595C00042308E0072306E0032304E0022302E00B
:10596C00012300E000237A6902F00302920003FA9B
:10597C0002F2FB689A4232D17B6903F003039B006D
:10598C001A460F239340FB601C487B699B081B49FC
:10599C007A699208023251F82210FA68D2430A400E
:1059AC00023340F823201A49194B1A683B69DB4330
:1059BC0013400B601649164B5A683B69DB43134086
:1059CC004B601349124B9A683B69DB4313408B6065
:1059DC000F490F4BDA683B69DB431340CB607B69A3
:1059EC0001337B617B693A6822FA03F3002B7FF465
:1059FC0041AF1C37BD465DF8047B70470000014089
:105A0C000004004800080048000C00480010004842
:105A1C000004014080B485B000AF78600B467B80F9
:105A2C007B681A697B881340002B02D00123FB731F
:105A3C0001E00023FB73FB7B18461437BD465DF871
:105A4C00047B704780B483B000AF78600B467B80DA
:105A5C0013467B707B78002B03D07A887B689A6125
:105A6C0002E07A887B689A620C37BD465DF8047B4D
:105A7C00704700BF80B483B000AF78600B467B806A
:105A8C007B685A697B885A407B685A610C37BD46E3
:105A9C005DF8047B704700BF80B487B000AFF8603E
:105AAC007B600B467B8113463B8100237B617B89AA
:105ABC0003F080039BB2002B09D07B8903F07F039A
:105ACC005B012833FA68134404337B6107E07B895C
