:020000040800F2
:10000000000001208D010008751C0008811C0008FB
:10001000871C00088D1C0008931C000800000000CD
:10002000000000000000000000000000991C000813
:10003000A51C000800000000B11C0008BD1C000841
:10004000DD010008DD010008DD010008DD01000818
:10005000DD010008DD010008DD010008DD01000808
:10006000DD010008DD010008DD010008DD010008F8
:10007000DD010008DD010008DD010008DD010008E8
:10008000DD010008DD010008DD010008DD010008D8
:10009000DD010008DD010008DD010008DD010008C8
:1000A000DD010008DD010008DD010008DD010008B8
:1000B000DD0100080000000000000000DD01000874
:1000C000DD010008DD010008DD010008DD01000898
:1000D000DD010008CD1C0008DD010008DD0100087D
:1000E000DD010008DD010008000000000000000044
:1000F0000000000000000000000000000000000000
:1001000000000000DD01000800000000DD01000823
:100110000000000000000000DD010008DD01000813
:10012000DD010008DD010008DD010008DD01000837
:10013000DD010008000000000000000000000000D9
:10014000DD010008DD010008DD010008E11C0008F8
:10015000DD010008DD010008DD010008DD01000807
:10016000DD010008DD010008DD01000800000000DD
:10017000DD010008DD010008DD01000800000000CD
:0C018000DD010008DD010008DD010008C1
:10018C00DFF834D0002103E00C4B5B5843500431B2
:10019C000B480C4B42189A42F6D30B4A02E0002350
:1001AC0042F8043B094B9A42F9D301F001FF08F0E5
:1001BC007FFD00F023FFFEE700000120D88F000830
:1001CC00000000209C0500209C0500202C1800201D
:1001DC00FEE7000010B5054C237833B9044B13B17E
:1001EC000448AFF300800123237010BD9C05002050
:1001FC00000000008C0100080C4B43B10C4810B5FA
:10020C000C49AFF300800C48036823B910BD0A48B1
:10021C00036833B97047094B002BF7D0BDE8104089
:10022C001847064B002BF5D0184700BF0000000004
:10023C008C010008A00500209C0500200000000097
:10024C0053B94AB9002908BF00281CBF4FF0FF3131
:10025C004FF0FF3000F07AB9ADF1080C6DE904CE27
:10026C0000F006F8DDF804E0DDE9022304B0704785
:10027C002DE9F0478C460E460446089D002B50D1C4
:10028C008A4217466CD9B2FA82FEBEF1000F0BD02F
:10029C00CEF1200C01FA0EF620FA0CFC02FA0EF745
:1002AC004CEA060C00FA0EF43A0CBCFBF2F9BBB2A9
:1002BC0002FB19CC09FB03FA4FEA144848EA0C4636
:1002CC00B2450AD9F61909F1FF3180F02581B24502
:1002DC0040F22281A9F102093E44A6EB0A06B6FBC4
:1002EC00F2F002FB106600FB03F3A4B244EA0644EE
:1002FC00A34209D9E41900F1FF3280F00B81A3422B
:10030C0040F2088102383C440021E41A40EA0940DA
:10031C00002D62D0002324FA0EF42C606B60BDE833
:10032C00F0878B4207D9002D55D0002185E841007C
:10033C000846BDE8F087B3FA83F1002940F08F80BE
:10034C00B34202D3824200F2FC80841A66EB0306AD
:10035C000120B446002D40D085E81010BDE8F08790
:10036C0012B90127B7FBF2F7B7FA87FEBEF1000FFF
:10037C0035D10121F61B4FEA174C1FFA87F8B6FB53
:10038C00FCF20CFB126608FB02F0230C43EA064657
:10039C00B04207D9F61902F1FF3302D2B04200F293
:1003AC00D2801A46361AB6FBFCF00CFB106608FB22
:1003BC0000F8A3B243EA0644A04507D9E41900F1BA
:1003CC00FF3302D2A04500F2B9801846A4EB080412
:1003DC0040EA02409CE729462846BDE8F08707FA28
:1003EC000EF7CEF1200326FA03F24FEA174CB2FBBC
:1003FC00FCF11FFA87F80CFB112206FA0EF620FA14
:10040C0003F301FB08F933431E0C46EA0246B145DF
:10041C0000FA0EF409D9F61901F1FF3280F08C8044
:10042C00B14540F2898002393E44A6EB0906B6FB81
:10043C00FCF00CFB106200FB08F99EB246EA024687
:10044C00B14507D9F61900F1FF3371D2B1456FD917
:10045C0002383E44A6EB090640EA01418FE7C1F1A0
:10046C00200722FA07F88B4048EA030326FA07F420
:10047C004FEA134EB4FBFEF91FFA83FC0EFB194432
:10048C008E4020FA07F809FB0CFA48EA06084FEAF6
:10049C00184646EA0444A24502FA01F200FA01F6B3
:1004AC0008D9E41809F1FF3044D2A24542D9A9F188
:1004BC0002091C44A4EB0A04B4FBFEF00EFB10442E
:1004CC0000FB0CFC1FFA88F848EA0444A44507D941
:1004DC00E41800F1FF3E29D2A44527D902381C4468
:1004EC0040EA0940A0FB0289A4EB0C0CCC45C246A7
:1004FC00CE4615D312D055B1B6EB0A036CEB0E06F3
:10050C0006FA07F7CB401F43CE402F606E600021E8
:10051C00BDE8F0871046F7E68946DEE64645EAD2A6
:10052C00B8EB020A69EB030E0138E4E77046D7E733
:10053C0018468FE78146BDE7114676E702383C4402
:10054C0044E7084606E7023A3E442BE7704700BFF3
:10055C0080B485B000AF786039607B685B68BB6045
:10056C007B681B68BA68D31AFB60FB68002B03DA44
:10057C00FB6803F58063FB607B689A68FB689A42B2
:10058C0002DA7B68FA689A60FB6840F2FF329342A9
:10059C0002D14FF0FF3315E0BB685A1CBA603A68C1
:1005AC00D1B27A6813440A461A73BB68C3F30902C2
:1005BC007B685A60FB68B3F5407F02DD044B012277
:1005CC001A60002318461437BD4680BC704700BF24
:1005DC00C405002080B584B000AF786039607B68BA
:1005EC001B68BB607B685A68BB68D31AFB60FB68EE
:1005FC00002B03DAFB6803F58063FB60FB68002BC0
:10060C0002D14FF0FF331AE0BB685A1CBA607A680B
:10061C0013441A7B3B681A70BB68C3F309027B68EE
:10062C001A60094B1B68002B08D0FB68FF2B05DCFC
:10063C00054B00221A60054807F04EFA00231846B5
:10064C001037BD4680BD00BFC4050020E01500205A
:10065C0080B584B000AF78607B68FB6002E0FB681B
:10066C000133FB60FB681B78002BF8D1124B1B6825
:10067C00002B09D1FA687B68D31A9AB24FF4FA733B
:10068C0079680E4804F0C6FBFA687B68D31A9BB2F3
:10069C001946786800F06AFFFA687B689A4207D9B5
:1006AC00FB68013B1B780A2B02D10548FFF7D0FFF2
:1006BC0000BF1037BD4680BDC8050020F40C0020DB
:1006CC002C8E000880B582B000AF786000BF074B5D
:1006DC001A68064B5B689A42F9D079680348FFF7B1
:1006EC0079FF034618460837BD4680BDCC0500206F
:1006FC0080B582B000AF786000230122796806488B
:10070C0004F015FC0346002B01D0012300E000236C
:10071C0018460837BD4680BDF40C002080B582B069
:10072C0000AF78600348FFF793FF00BF0837BD4662
:10073C0080BD00BF308E000880B584B000AF7860FB
:10074C0039603B681B68BB600023FB6012E07B6870
:10075C005A1C7A601B7819460E48FFF7F9FE0346BF
:10076C00002B04DA0C48FFF773FF00230EE0FB6844
:10077C000133FB60FA68BB689A42E8DB074B1B68E5
:10078C00002B02D1064807F0A7F9002318461037B2
:10079C00BD4680BDCC050020408E0008C40500205D
:1007AC00E015002080B400AF044B054ADA60054B1D
:1007BC0001221A6000BFBD4680BC704700000020BB
:1007CC0045070008C405002080B582B000AF7860F2
:1007DC007B68184603F092FF00BF0837BD4680BD0A
:1007EC0080B584B000AF786039600023FB604FF4B3
:1007FC0000437B811BE07A893B689A4201D93B68B4
:10080C007B817A894FF0FF3379680D4805F022FB24
:10081C000346FB60FB68002B01D0FB680BE07B8977
:10082C003A68D31A3B607B897A6813447B603B68D7
:10083C00002BE0D1FB6818461037BD4680BD00BFC9
:10084C00900C002080B582B000AF78607B68002BE4
:10085C0008DB0F4B1B685A1C0D490A607A68D1B231
:10086C000C4AD1547B68002B03DA094B1B68002B14
:10087C0003DC074B1B68402B06D140210548FFF7D2
:10088C00AFFF034B00221A6000BF0837BD4680BD86
:10089C00180A0020D809002080B500AF054801F0E7
:1008AC0011FB4FF400414FF0904004F0B9F800BF39
:1008BC0080BD00BF900C002080B586B000AF0B4807
:1008CC0001F0D0FA4FF400437B600123BB6000239E
:1008DC00FB6000233B613B1D19464FF0904003F039
:1008EC0023FF00BF1837BD4680BD00BF900C002011
:1008FC0080B500AF034B01221A60034801F038FBAE
:10090C0000BF80BDC8050020F40C002080B582B06B
:10091C0000AF00224021164804F075F900224FF474
:10092C0000414FF0904004F06EF90120FFF74CFFAE
:10093C00012240210E4804F066F964237B6007E035
:10094C007B68013B7B607B68002B01D101230AE0B3
:10095C008021074804F040F90346012BF0D0022017
:10096C00FFF732FF002318460837BD4680BD00BF95
:10097C000004004880B584B000AF0023FB716423F1
:10098C00FB600FE0FB68002B04D11548FFF760FEFD
:10099C00022320E0FB1D01211846FFF721FFFB6815
:1009AC00013BFB6080210F4804F016F90346012B34
:1009BC00E8D10023BB6007E0FB1D01211846FFF7BF
:1009CC000FFFBB680133BB60BB68062BF4DD064828
:1009DC00FFF73EFE002318461037BD4680BD00BF12
:1009EC00508E000800040048608E000880B487B068
:1009FC0000AF0346FB71FB791B023B61144B1B8858
:100A0C007B610023FB6016E00023BB607A693B69C5
:100A1C00534003F40043002B02D041F22103BB608E
:100A2C007B695A00BB6853407B613B695B003B614F
:100A3C00FB680133FB60FB68072BE5DD7B699AB231
:100A4C00034B1A8000BF1C37BD4680BC704700BFEB
:100A5C00B805002080B400AF034B4FF6FF721A802C
:100A6C0000BFBD4680BC7047B805002080B582B081
:100A7C0000AF786039607B68002B05D14FF0FF30F8
:100A8C00FFF7E0FE002313E07868FFF71BFE034638
:100A9C00002B02D04FF0FF330AE07B681B7818461E
:100AAC00FFF7D0FE7B681B781846FFF79FFF0023EB
:100ABC0018460837BD4680BD80B582B000AF78605F
:100ACC003960104B1A68104B1B689A4202D34FF0D6
:100ADC00FF3312E07B68002B01D100230DE0094BA2
:100AEC001B685A1C07490A601A787B681A707B6865
:100AFC001B781846FFF77AFF002318460837BD46C7
:100B0C0080BD00BFBC050020C005002080B582B0B0
:100B1C0000AF78603960144B1A68144B1B689A420A
:100B2C0002D34FF0FF331AE07B68002B05D14FF056
:100B3C00FF30FFF787FE002311E00B4B1B685A1C9C
:100B4C0009490A601A787B681A7001217868FFF7E6
:100B5C0047FE7B681B781846FFF748FF00231846B2
:100B6C000837BD4680BD00BFBC050020C005002075
:100B7C0080B584B000AFF860B9607A603B6009E082
:100B8C00FB683968786898470346002B02DA4FF007
:100B9C00FF3305E0BB685A1EBA60002BF0DC002363
:100BAC0018461037BD4680BD80B58AB000AF78605E
:100BBC00396000233B6200237B6100233B613B686F
:100BCC007B6213E007F10B027B6872491046984771
:100BDC000346002B02DA4FF0FF33D6E07B6A1B0290
:100BEC007B62FB7A1A467B6A13437B627B6A6A4A96
:100BFC009342E7D1BDE0FB7A1B09DBB2FB60FB7AC9
:100C0C0003F00F03FB610023BB6113E007F10B0240
:100C1C007B686049104698470346002B02DA4FF078
:100C2C00FF33B2E0BB691B02BB61FB7A1A46BB699E
:100C3C001343BB61FB695A1EFA61002BE6DCFB68AF
:100C4C00092B17D801A252F823F000BFA90C0008F9
:100C5C00670D0008870C0008810C0008810C000847
:100C6C00670D00089B0C0008A30C0008670D00081A
:100C7C00670D00084FF0FF3387E0464B1B88002BB5
:100C8C006DD04648FFF7E4FC4FF0FF337DE0BB69C5
:100C9C0001337B6166E0BB693B6163E0BB69013B8F
:100CAC00052B0FD801A252F823F000BFD70C000877
:100CBC00D10C0008D70C0008D10C00083D0D000821
:100CCC00430D00084FF0FF335FE03B697A6902FB8C
:100CDC0003F3002B00DA0733DB10194607F10B0284
:100CEC002C4B7868FFF744FF0346002B02DA4FF0D9
:100CFC00FF334AE007F10B027B6826491046984700
:100D0C000346002B02DBFB7A002B02D04FF0FF33A3
:100D1C003BE007F10B027B681E49104698470346DF
:100D2C00002B02DBFB7A002B1BD04FF0FF332CE0A7
:100D3C00FFF790FE16E03B6A002B02D14FF0FF3319
:100D4C0023E007F10B027B681249104698477B6839
:100D5C00002100209847002317E000BF02E000BFED
:100D6C0000E000BFFB68022B0CBF01230023DBB2A9
:100D7C003B6207F10B027B68064910469847034615
:100D8C00002B3FF438AF4FF0FF3318462837BD46E1
:100D9C0080BD00BFB80500207E99AA7E708E000829
:100DAC0080B582B000AF01224FF400413D4803F002
:100DBC002AFFFFF771FD00224FF40051394803F070
:100DCC0022FF394B394A1A60394B3A4A1A603A4871
:100DDC00FFF73EFC3948FFF73BFC3948FFF738FC7E
:100DEC00FFF738FE00213748FFF7DEFE0346002BE5
:100DFC0038D13548FFF72CFC2B4B2C4A1A60FFF7E7
:100E0C0029FE01224FF40051264803F0FCFE00227B
:100E1C0040212E4803F0F7FEFFF74EFDFFF776FD5D
:100E2C000346002B03D02A48FFF712FC12E00021E6
:100E3C002848FFF7B9FE0346002B03D02648FFF7DE
:100E4C0007FC07E0FFF796FD0346002B02D0234872
:100E5C00FFF7FEFBFFF720FD00224FF40051114875
:100E6C0003F0D1FE1E48FFF7F3FB00BFFB1D184635
:100E7C00FFF73EFC0346002BF8D0FFF793FC002253
:100E8C004FF48041074803F0BEFE00224FF40041AE
:100E9C00044803F0B8FEFFF72BFD00BF0837BD4632
:100EAC0080BD00BF00080048BC05002000F0010810
:100EBC00C0050020000004087C8E0008908E0008FD
:100ECC00948E0008C50A0008988E0008000400489B
:100EDC00B08E0008190B0008C08E0008D08E0008D8
:100EEC00E48E000880B582B000AF0023FB713A4B52
:100EFC001B68002B08D04FF40051384803F09AFEC1
:100F0C00642003F0FBFB63E03548FFF7A1FB354B96
:100F1C001B68002B08D0344806F0DEFD0346002B7E
:100F2C0002D1304B00221A60FB1D19462F48FFF7E7
:100F3C0051FBFB797E2BEAD101224FF4005127485B
:100F4C0003F061FE01224FF40041244803F05BFEE4
:100F5C0000224021264803F056FEFFF7ADFCFFF7B8
:100F6C00D5FC02461C4B1A601B4B1B68002B2ED168
:100F7C00FFF770FDFB1D01211846FFF731FCFB79D3
:100F8C001846FFF733FDFB7919461A48FFF70CFE9C
:100F9C000246114B1A60104B1B68002B03D01648ED
:100FAC00FFF756FB14E0FFF7E5FC02460A4B1A600C
:100FBC00FFF772FC00224FF40041084803F023FEB7
:100FCC0000224FF40051054803F01DFE00E000BF65
:100FDC000837BD4680BD00BF1C0A00200008004831
:100FEC00F08E0008C4050020E0150020CC05002080
:100FFC0000040048790A0008C08E000880B500AFD4
:10100C0003F03AFB00F012F800F054F900F088F805
:10101C0000F0E2F800F01EF900F0B8F800F002FE63
:10102C00FFF7BEFEFFF75EFFFCE7000080B5AEB039
:10103C0000AF23237B674FF48033BB674FF480737F
:10104C00C7F880300123C7F898301023C7F88430D4
:10105C000223C7F89C300323C7F8A0300323C7F83A
:10106C00A4302823C7F8A8300723C7F8AC300223D4
:10107C00C7F8B0300223C7F8B43007F17403184630
:10108C0001F050F80346002B01D000F0DDF90F23DE
:10109C003B6603237B660023BB660023FB660023B1
:1010AC003B6707F160030421184601F0FDFB034682
:1010BC00002B01D000F0C8F942F241033B6002233F
:1010CC003B6200233B630023BB643B46184602F0A3
:1010DC0039FF0346002B01D000F0B6F94FF4007035
:1010EC0001F0BAFE0346002B01D000F0ADF901F07F
:1010FC00F7FD0246094BA3FB02239B09184605F09A
:10110C002EFA042005F038FA002200214FF0FF30AF
:10111C0005F0EDF900BFB837BD4680BDD34D621068
:10112C0080B500AF164B174A1A60154B164A5A6019
:10113C00134B00229A60124B0122DA60104B0022F2
:10114C001A610F4B00225A610D4B00229A610C4B15
:10115C000022DA610A4B00221A62094800F054FF9F
:10116C000346002B01D000F06FF90021044801F078
:10117C00D7FE0346002B01D000F066F900BF80BDFE
:10118C00440C002000540040EC9C901080B500AF43
:10119C000F4B104A1A600E4BFF225A600C4B012267
:1011AC009A600B4B0022DA60094B01221A61084B42
:1011BC0000225A61064B00229A61054805F04CFA50
:1011CC000346002B01D000F03FF900BF80BD00BFEB
:1011DC00640D0020001000A080B500AF1B4B1C4A12
:1011EC001A601A4B4FF482725A60184B00229A60A4
:1011FC00164B4FF4E062DA60144B02221A61134B67
:10120C0001225A61114B4FF400729A610F4B082264
:10121C00DA610E4B00221A620C4B00225A620B4B05
:10122C0000229A62094B0722DA62084B00221A63E9
:10123C00064B00225A63054804F084FD0346002B3C
:10124C0001D000F001F900BF80BD00BF900C002060
:10125C00003C004080B500AF144B154A1A60134B8C
:10126C004FF4E1325A60114B00229A600F4B00226E
:10127C00DA600E4B00221A610C4B0C225A610B4B9C
:10128C0000229A61094B0022DA61084B00221A6293
:10129C00064B00225A62054803F06BFD0346002BF7
:1012AC0001D000F0D1F800BF80BD00BFF40C0020CD
:1012BC000038014080B58AB000AF5F4A5E4BDB6CF2
:1012CC0043F00403D3645C4BDB6C03F004033B611D
:1012DC003B69594A584BDB6C43F08003D364564B43
:1012EC00DB6C03F08003FB60FB68534A524BDB6CF6
:1012FC0043F00103D364504BDB6C03F00103BB6080
:10130C00BB684D4A4C4BDB6C43F00203D3644A4B35
:10131C00DB6C03F002037B607B68474A464BDB6C5B
:10132C0043F00803D364444BDB6C03F008033B60CD
:10133C003B6800224FF46041404803F064FC0122FA
:10134C004FF400414FF0904003F05DFC012240212E
:10135C003B4803F058FC4FF460437B610123BB61B5
:10136C000023FB6100233B6207F114031946334849
:10137C0003F0DAF941F6FF737B610023BB610023B4
:10138C00FB6107F1140319462C4803F0CDF940F228
:10139C0033137B610023BB610023FB6107F1140352
:1013AC0019464FF0904003F0BFF94FF604437B61B0
:1013BC000023BB610023FB6107F11403194620488D
:1013CC0003F0B2F94FF400437B610123BB610023AE
:1013DC00FB6100233B6207F1140319464FF0904068
:1013EC0003F0A2F904237B610023BB610023FB61A2
:1013FC0007F114031946134803F096F940237B6157
:10140C000123BB610023FB6100233B6207F1140342
:10141C0019460B4803F088F980237B610023BB61DC
:10142C000123FB6107F114031946054803F07CF90D
:10143C0000BF2837BD4680BD0010024000080048A0
:10144C0000040048000C004880B400AFFEE7000028
:10145C0080B500AF00220549054806F0E7FA0549BA
:10146C00034806F0FCFA0023184680BDA80F0020A4
:10147C00E0150020A80D002080B400AF0023184612
:10148C00BD4680BC7047000080B483B000AF0346FB
:10149C003960FB711346BB80FB79232B4AD801A220
:1014AC0052F823F0411500084115000841150008B9
:1014BC0041150008411500084115000841150008A8
:1014CC004115000841150008411500084115000898
:1014DC004115000841150008411500084115000888
:1014EC004115000841150008411500084115000878
:1014FC004115000841150008411500084115000868
:10150C004115000841150008411500084115000857
:10151C004115000841150008411500084115000847
:10152C004115000841150008411500084115000837
:10153C004115000800BF002318460C37BD4680BC7F
:10154C00704700BF80B582B000AF786039607968B1
:10155C00054806F084FA044806F0BEFA0023184643
:10156C000837BD4680BD00BFE015002080B584B0B3
:10157C0000AF78600B467B800023FB730D4BD3F8D8
:10158C001832BB60BB68D3F81432002B01D0012396
:10159C000BE07B881A467968064806F047FA05483E
:1015AC0006F070FA0346FB73FB7B18461037BD46FA
:1015BC0080BD00BFE015002080B584B000AF78601E
:1015CC007B681B680D4A934213D10D4A0C4B9B6DE3
:1015DC0043F0806393650A4B9B6D03F08063FB6063
:1015EC00FB6800220021432004F081FF432004F01B
:1015FC009AFF00BF1037BD4680BD00BF0068004099
:10160C000010024080B582B000AF78607B68D3F8E0
:10161C0030247B6803F57C731946104605F09AF963
:10162C0000BF0837BD4680BD80B582B000AF786082
:10163C000B46FB707B68D3F83004FB787A685B014F
:10164C00134403F508731A68FB78194605F0CCF9B6
:10165C0000BF0837BD4680BD80B582B000AF786052
:10166C000B46FB707B68D3F83004FB787A685B011F
:10167C00134440331A68FB78194605F010FA00BF82
:10168C000837BD4680BD80B582B000AF78607B68FE
:10169C00D3F83034184605F0F3FA00BF0837BD46CE
:1016AC0080BD80B584B000AF78600123FB737B688C
:1016BC009B68012B02D10123FB7302E00123FB7316
:1016CC0000BF7B68D3F83034FA7B1146184605F01E
:1016DC00A4FA7B68D3F83034184605F06FFA00BFD3
:1016EC001037BD4680BD000080B582B000AF786079
:1016FC007B68D3F83034184605F09EFA7B68DB69BA
:10170C00002B05D0044A044B1B6943F006031361FC
:10171C0000BF0837BD4680BD00ED00E080B582B04B
:10172C0000AF78607B68DB69002B07D0084A084B58
:10173C001B6923F00603136100F097F97B68D3F85B
:10174C003034184605F08CFA00BF0837BD4680BD12
:10175C0000ED00E080B582B000AF786001F0D2FB04
:10176C002C4A7B68C2F830347B682A4AC3F82022A2
:10177C00284B294A1A60274B08225A60254B012214
:10178C009A60244B00221A61224B01225A61214B90
:10179C0000229A611F4B0022DA611E4B00221A6252
:1017AC001C4B00225A621B4801F004FC0346002B20
:1017BC0001D0FFF749FE7B68D3F8200218230022E2
:1017CC00002103F048FA7B68D3F82002582300224A
:1017DC00802103F040FA7B68D3F82002C02300225A
:1017EC00812103F038FA7B68D3F820024FF4887318
:1017FC000022012103F02FFA7B68D3F820024FF46A
:10180C0080730022822103F026FA00231846083741
:10181C00BD4680BDAC0F00200068004080B582B092
:10182C0000AF78607B68D3F82032184601F0B2FC28
:10183C00002318460837BD4680BD80B582B000AF86
:10184C007860084611461A460346FB700B46BB707F
:10185C0013463B807B68D3F82002BB783A88F97832
:10186C0001F05EFE002318460837BD4680BD80B5EA
:10187C0082B000AF78600B46FB707B68D3F82032E7
:10188C00FA781146184601F0A2FE002318460837D4
:10189C00BD4680BD80B582B000AF78600B46FB7052
:1018AC007B68D3F82032FA781146184601F08FFF86
:1018BC00002318460837BD4680BD80B582B000AF06
:1018CC0078600B46FB707B68D3F82032FA781146AF
:1018DC00184601F0D5FF002318460837BD4680BDD9
:1018EC0080B485B000AF78600B46FB707B68D3F892
:1018FC002032FB6097F90330002B08DAFB7803F0F9
:10190C007F03FA685B0113442E331B7808E0FB78E5
:10191C0003F07F03FA685B01134403F20E231B7878
:10192C0018461437BD4680BC704780B582B000AFF6
:10193C0078600B46FB707B68D3F82032FA7811463E
:10194C00184601F0C8FD002318460837BD4680BD77
:10195C0080B584B000AFF8607A601A460B46FB7213
:10196C0013463B81FB68D3F820023B89F97A7A68ED
:10197C0001F0DCFE002318461037BD4680BD80B553
:10198C0084B000AFF8607A601A460B46FB721346BF
:10199C003B81FB68D3F820023B89F97A7A6801F025
:1019AC005EFE002318461037BD4680BD80B582B060
:1019BC0000AF78600B46FB707B68D3F82032FA7866
:1019CC001146184601F09DFE034618460837BD46E1
:1019DC0080BD000080B582B000AF78600B46FB7014
:1019EC00FB78002B02D0012B13D023E07B68DB6942
:1019FC00002B07D0FFF71AFB104A104B1B6923F082
:101A0C00060313617B68D3F83034184605F028F9C7
:101A1C0010E07B68D3F83034184605F00DF97B687C
:101A2C00DB69002B05D0054A044B1B6943F0060308
:101A3C00136100BF00BF0837BD4680BD00ED00E05C
:101A4C0080B483B000AF7860024B18460C37BD46AB
:101A5C0080BC7047200A002080B483B000AF78604F
:101A6C0000BF0C37BD4680BC704780B500AFFFF798
:101A7C00DDFA00BF80BD80B485B000AF78607B68B4
:101A8C00D3F82032FB60FB685B6A012B01D1002389
:101A9C0000E0022318461437BD4680BC7047000096
:101AAC0080B483B000AF03463960FB713B681222EF
:101ABC001A80034B18460C37BD4680BC704700BFDC
:101ACC003000002080B483B000AF03463960FB7156
:101ADC003B6804221A80034B18460C37BD4680BC69
:101AEC00704700BF5000002080B582B000AF0346A5
:101AFC003960FB71FB79002B05D13A68074908481E
:101B0C0005F0FEFC04E03A680449054805F0F8FCD1
:101B1C00024B18460837BD4680BD00BFE0130020BD
:101B2C00088F000880B582B000AF03463960FB71A6
:101B3C003A680449044805F0E3FC024B18460837A0
:101B4C00BD4680BDE0130020208F000880B582B018
:101B5C0000AF03463960FB71FB79002B05D13A6865
:101B6C000749084805F0CCFC04E03A6804490548EC
:101B7C0005F0C6FC024B18460837BD4680BD00BFB9
:101B8C00E0130020348F000880B582B000AF03460C
:101B9C003960FB71FB79002B05D13A68074908487D
:101BAC0005F0AEFC04E03A680449054805F0A8FCD1
:101BBC00024B18460837BD4680BD00BFE01300201D
:101BCC00448F000880B582B000AF03463960FB71CA
:101BDC00FB79002B05D13A680749084805F090FCC1
:101BEC0004E03A680449054805F08AFC024B1846A3
:101BFC000837BD4680BD00BFE0130020508F0008A1
:101C0C0080B483B000AF03463960FB713B680C2293
:101C1C001A80034B18460C37BD4680BC704700BF7A
:101C2C004400002080B500AF00220B490B4804F0A3
:101C3C0005FE0B49094804F02CFE0A49074805F03B
:101C4C00DFFE0648FFF717FF0346002B02D00348C0
:101C5C0004F038FE00BF80BD10000020E01500200D
:101C6C00640000200000002080B400AF00BFBD461F
:101C7C0080BC704780B400AFFEE780B400AFFEE7D5
:101C8C0080B400AFFEE780B400AFFEE780B400AFD5
:101C9C0000BFBD4680BC704780B400AF00BFBD46DE
:101CAC0080BC704780B400AF00BFBD4680BC70479D
:101CBC0080B500AF02F00AFD04F07AFC00BF80BDD5
:101CCC0080B500AF024803F0F5F900BF80BD00BF3E
:101CDC00F40C002080B500AF024801F07DFA00BF83
:101CEC0080BD00BFAC0F002080B582B000AF244A8D
:101CFC00234B1B6E43F001031366214B1B6E03F049
:101D0C0001037B607B681E4A1D4B9B6D43F0805327
:101D1C0093651B4B9B6D03F080533B603B6803202A
:101D2C0004F0DAFB002200216FF00B0004F0DFFB63
:101D3C00002200216FF00A0004F0D9FB00220021E0
:101D4C006FF0090004F0D3FB002200216FF00400B7
:101D5C0004F0CDFB002200216FF0030004F0C7FB60
:101D6C00002200216FF0010004F0C1FB00220021D1
:101D7C004FF0FF3004F0BBFB00BF0837BD4680BD01
:101D8C000010024080B588B000AF78607B681B689B
:101D9C00114A93421CD14FF44073FB6012233B61F8
:101DAC0001237B610323BB610423FB6107F10C035B
:101DBC0019460A4802F0B8FC094A094B9B6D43F4DA
:101DCC0000139365064B9B6D03F40013BB60BB685B
:101DDC0000BF2037BD4680BD0054004000040048C1
:101DEC000010024080B588B000AF78607B681B683B
:101DFC00194A93422CD1194A184B1B6D43F480732A
:101E0C001365164B1B6D03F48073BB60BB68CC234E
:101E1C00FB6002233B6100237B610323BB610A232C
:101E2C00FB6107F10C0319464FF0904002F07CFC6B
:101E3C000323FB6002233B6100237B610323BB6113
:101E4C000A23FB6107F10C031946054802F06CFCF0
:101E5C0000BF2037BD4680BD001000A0001002401E
:101E6C000004004880B588B000AF78607B681B68C0
:101E7C00114A93421BD1114A104B9B6D43F4004302
:101E8C0093650E4B9B6D03F40043BB60BB6838231A
:101E9C00FB6002233B6100237B610323BB610623B0
:101EAC00FB6107F10C031946054802F03DFC00BF2D
:101EBC002037BD4680BD00BF003C004000100240F2
:101ECC000004004880B582B000AF78607B681B6866
:101EDC00084A934209D1084A074B9B6D23F40043EF
:101EEC0093653821054802F09BFD00BF0837BD46BD
:101EFC0080BD00BF003C00400010024000040048C0
:101F0C0080B588B000AF78607B681B68164A934236
:101F1C0025D1164A154B1B6E43F480431366134BA5
:101F2C001B6E03F48043BB60BB684FF4C063FB6063
:101F3C0002233B6101237B610323BB610723FB610C
:101F4C0007F10C0319464FF0904002F0EDFB002214
:101F5C000021252004F0CBFA252004F0E4FA00BF80
:101F6C002037BD4680BD00BF003801400010024044
:101F7C0080B582B000AF78607B681B680A4A9342D8
:101F8C000ED10A4A094B1B6E23F4804313664FF49F
:101F9C00C0614FF0904002F043FD252004F0D1FACF
:101FAC0000BF0837BD4680BD00380140001002401C
:101FBC0080B400AF124A124B1B6843F0010313604C
:101FCC000F4B00229A600E4A0D4B1B6823F0A8534E
:101FDC0023F4102313600A4B4FF48052DA60084A42
:101FEC00074B1B6823F480231360054B00229A6176
:101FFC00044B4FF000629A6000BFBD4680BC704736
:10200C000010024000ED00E080B582B000AF7860B7
:10201C007B68002B01D1012380E07B6893F8413071
:10202C00DBB2002B06D17B68002283F84020786855
:10203C00FFF7A8FE7B68242283F841207B681B688D
:10204C007A681268126822F001021A607B681B68B9
:10205C007A68526822F070621A617B681B687A6831
:10206C001268926822F400429A607B68DB68012B4C
:10207C0007D17B681B687A68926842F400429A60C8
:10208C0006E07B681B687A68926842F404429A60A6
:10209C007B68DB68022B04D17B681B684FF4006201
:1020AC005A607B681A687B681B685B6843F0007336
:1020BC0043F4004353607B681B687A681268D268EB
:1020CC0022F40042DA607B681B687A6811697A68CE
:1020DC00526911437A68926912020A43DA607B688A
:1020EC001B687A68D1697A68126A0A431A607B683D
:1020FC001B687A681268126842F001021A607B68E9
:10210C0000225A647B68202283F841207B680022DD
:10211C001A637B68002283F8422000231846083794
:10212C00BD4680BD80B58CB000AF78600023BB622B
:10213C007B681B6803F01003002B00F0DB80A24BC4
:10214C009B6803F00C03002B40F084809E4B1B68B3
:10215C0003F00203002B05D07B689B69002B01D197
:10216C0001239BE37B681A6A974B1B6803F00803F7
:10217C00002B04D0944B1B6803F0F00305E0924B4A
:10218C00D3F894301B0903F0F0039A4223D97B68EF
:10219C001B6A184600F0F2FD0346002B01D0012308
:1021AC007CE3894A884B1B6843F00803136086491B
:1021BC00854B1B6823F0F0027B681B6A13430B6092
:1021CC008149814B5B6823F47F427B68DB691B028E
:1021DC0013434B6022E07C4A7B4B1B6843F00803A3
:1021EC0013607949784B1B6823F0F0027B681B6AFB
:1021FC0013430B607449744B5B6823F47F427B6818
:10220C00DB691B0213434B607B681B6A184600F0AA
:10221C00B5FD0346002B01D001233FE300F066FC23
:10222C000146694B9B6803F0F002F0237B627B6AEA
:10223C0093FAA3F33B623B6AB3FA83F322FA03F3F8
:10224C00624AD35C21FA03F3614A1360002002F066
:10225C0021FA4FE07B689B69002B32D05A4A5A4BCB
:10226C001B6843F00103136002F03EFAB86208E009
:10227C0002F03AFA0246BB6AD31A022B01D90323A5
:10228C000CE3514B1B6803F00203002BF0D04E4AB9
:10229C004D4B1B6843F0080313604B494A4B1B68BA
:1022AC0023F0F0027B681B6A13430B604649464BD4
:1022BC005B6823F47F427B68DB691B0213434B6032
:1022CC0018E0414A404B1B6823F00103136002F0F5
:1022DC000BFAB86208E002F007FA0246BB6AD31A9E
:1022EC00022B01D90323D9E2374B1B6803F00203FD
:1022FC00002BF0D17B681B6803F00103002B7AD014
:10230C00314B9B6803F00C03082B0BD02E4B9B68B6
:10231C0003F00C030C2B11D12B4BDB6803F00303E4
:10232C00032B0BD1284B1B6803F40033002B61D01B
:10233C007B685B68002B5DD10123AFE27B685B6837
:10234C00B3F5803F06D1204A1F4B1B6843F4803302
:10235C0013601DE07B685B68B3F5A02F0CD11A4AA3
:10236C00194B1B6843F480231360174A164B1B68E8
:10237C0043F4803313600BE0134A134B1B6823F4B4
:10238C0080331360104A104B1B6823F480231360B6
:10239C007B685B68002B13D002F0A6F9B86208E0EA
:1023AC0002F0A2F90246BB6AD31A642B01D90323AB
:1023BC0074E2054B1B6803F40033002BF0D01AE0D9
:1023CC0002F092F9B8620EE000100240608F000833
:1023DC005400002002F088F90246BB6AD31A642B21
:1023EC0001D903235AE2B04B1B6803F40033002BD2
:1023FC00F0D100E000BF7B681B6803F00203002BE8
:10240C007FD0A94B9B6803F00C03042B0BD0A64B7D
:10241C009B6803F00C030C2B27D1A34BDB6803F058
:10242C000303022B21D1A04B1B6803F48063002B08
:10243C0005D07B68DB68002B01D101232EE29A4882
:10244C00994B5B6823F0F8527B6819694FF0F8538D
:10245C00FB61FB6993FAA3F3BB61BB69B3FA83F32A
:10246C0001FA03F3134343604BE07B68DB68002BFA
:10247C002ED08D4A8C4B1B6843F48073136002F092
:10248C0033F9B86208E002F02FF90246BB6AD31A9E
:10249C00022B01D9032301E2834B1B6803F48063F5
:1024AC00002BF0D08048804B5B6823F0F8527B689F
:1024BC0019694FF0F8537B617B6993FAA3F33B6185
:1024CC003B69B3FA83F301FA03F31343436018E057
:1024DC00754A754B1B6823F48073136002F004F982
:1024EC00B86208E002F000F90246BB6AD31A022B6C
:1024FC0001D90323D2E16C4B1B6803F48063002BDE
:10250C00F0D17B681B6803F00803002B3CD07B6880
:10251C005B69002B1CD0644A634BD3F8943043F0B6
:10252C000103C2F8943002F0DFF8B86208E002F060
:10253C00DBF80246BB6AD31A022B01D90323ADE1A7
:10254C00594BD3F8943003F00203002BEFD01BE06F
:10255C00554A554BD3F8943023F00103C2F894300C
:10256C0002F0C2F8B86208E002F0BEF80246BB6A9C
:10257C00D31A022B01D9032390E14B4BD3F894309F
:10258C0003F00203002BEFD17B681B6803F00403FC
:10259C00002B00F0A980002387F82F30424B9B6D55
:1025AC0003F08053002B0ED13F4A3F4B9B6D43F001
:1025BC00805393653C4B9B6D03F08053FB60FB6831
:1025CC00012387F82F30394B1B6803F48073002BE1
:1025DC0018D1364A354B1B6843F48073136002F0F4
:1025EC0083F8B86208E002F07FF80246BB6AD31A9F
:1025FC00022B01D9032351E12C4B1B6803F480738C
:10260C00002BF0D07B689B68012B08D1264A264B07
:10261C00D3F8903043F00103C2F8903024E07B688B
:10262C009B68052B10D1204A1F4BD3F8903043F0F8
:10263C000403C2F890301C4A1B4BD3F8903043F083
:10264C000103C2F890300FE0174A174BD3F89030C3
:10265C0023F00103C2F89030134A134BD3F8903097
:10266C0023F00403C2F890307B689B68002B16D0D3
:10267C0002F03AF8B8620AE002F036F80246BB6A99
:10268C00D31A41F28832934201D9032306E1064B57
:10269C00D3F8903003F00203002BEDD01AE002F0D7
:1026AC0023F8B8620FE000BF001002400070004039
:1026BC0002F01AF80246BB6AD31A41F288329342EE
:1026CC0001D90323EAE0774BD3F8903003F00203EF
:1026DC00002BEDD197F82F30012B05D1714A714B9E
:1026EC009B6D23F0805393657B681B6803F020037C
:1026FC00002B3CD07B685B6A002B1CD0694A694B71
:10270C00D3F8983043F00103C2F8983001F0ECFF95
:10271C00B86208E001F0E8FF0246BB6AD31A022B4C
:10272C0001D90323BAE05F4BD3F8983003F00203CE
:10273C00002BEFD01BE05B4A5A4BD3F8983023F0B8
:10274C000103C2F8983001F0CFFFB86208E001F045
:10275C00CBFF0246BB6AD31A022B01D903239DE09F
:10276C00504BD3F8983003F00203002BEFD17B6869
:10277C009B6A002B00F091804A4B9B6803F00C0382
:10278C000C2B00F088807B689B6A022B55D1454A44
:10279C00444B1B6823F08073136001F0A5FFB862F3
:1027AC0008E001F0A1FF0246BB6AD31A022B01D943
:1027BC00032373E03B4B1B6803F00073002BF0D139
:1027CC0038497B681B6B013B1A017B685B6B1B02F6
:1027DC001A437B68DB6A1A437B68DB6B5B08013B43
:1027EC005B051A437B681B6C5B08013B5B061A4359
:1027FC007B689B6BDB061343CB602A4A294B1B6817
:10280C0043F080731360274A264BDB6843F08073D8
:10281C00D36001F069FFB86208E001F065FF024681
:10282C00BB6AD31A022B01D9032337E01D4B1B685B
:10283C0003F00073002BF0D02FE01A4A194B1B68E1
:10284C0023F080731360174B1B6803F00063002B9D
:10285C0005D1144A134BDB6823F00303D360114AF0
:10286C00104BDB6823F0887323F48033D36001F0C2
:10287C003BFFB86208E001F037FF0246BB6AD31A8F
:10288C00022B01D9032309E0064B1B6803F00073EC
:10289C00002BF0D101E0012300E000231846303773
:1028AC00BD4680BD0010024080B586B000AF786098
:1028BC00396000237B61894B1B6803F007023B687E
:1028CC009A4210D28549854B1B6823F007023B685E
:1028DC0013430B60814B1B6803F007023B689A4261
:1028EC0001D00123F6E07B681B6803F00203002B88
:1028FC0008D07B497A4B9B6823F0F0027B689B687D
:10290C0013438B607B681B6803F00103002B00F002
:10291C008E807B685B68022B07D1714B1B6803F4BC
:10292C000033002B21D10123D4E07B685B68032B9F
:10293C0007D16B4B1B6803F00073002B15D10123DF
:10294C00C8E07B685B68002B07D1654B1B6803F004
:10295C000203002B09D10123BCE0614B1B6803F47B
:10296C008063002B01D10123B4E05D495C4B9B6873
:10297C0023F003027B685B6813438B6001F0B4FEA9
:10298C0078617B685B68022B12D10AE001F0ACFE27
:10299C0002467B69D31A41F28832934201D9032350
:1029AC0098E04F4B9B6803F00C03082BEED13EE0F4
:1029BC007B685B68032B12D10AE001F095FE02469E
:1029CC007B69D31A41F28832934201D9032381E007
:1029DC00434B9B6803F00C030C2BEED127E07B6878
:1029EC005B68002B1DD10AE001F07EFE02467B697C
:1029FC00D31A41F28832934201D903236AE0384B4F
:102A0C009B6803F00C03002BEED110E001F06CFE80
:102A1C0002467B69D31A41F28832934201D90323CF
:102A2C0058E02F4B9B6803F00C03042BEED12B4B7F
:102A3C001B6803F007023B689A4210D92749274BC1
:102A4C001B6823F007023B6813430B60234B1B6886
:102A5C0003F007023B689A4201D001233AE07B68FD
:102A6C001B6803F00403002B08D01D491C4B9B680A
:102A7C0023F4E0627B68DB6813438B607B681B6824
:102A8C0003F00803002B09D01549154B9B6823F460
:102A9C0060527B681B69DB0013438B6000F026F8E7
:102AAC0001460F4B9B6803F0F002F0233B613B693E
:102ABC0093FAA3F3FB60FB68B3FA83F322FA03F3F4
:102ACC00084AD35C21FA03F3074A1360002001F093
:102ADC00E1FD002318461837BD4680BD002002409A
:102AEC0000100240608F00085400002080B495B0A4
:102AFC0000AF0023FB640023BB6400233B64022370
:102B0C00FB630223BB6300237B64714B9B6803F064
:102B1C000C03002B0BD06E4B9B6803F00C030C2B9F
:102B2C003CD16B4BDB6803F00303012B36D1684BB4
:102B3C001B6803F00803002B12D1654BD3F89430BB
:102B4C0003F470624FF470637B637B6B93FAA3F3B3
:102B5C003B633B6BB3FA83F322FA03F3FB640FE0A2
:102B6C005B4B1B6803F0F002F023FB62FB6A93FAE9
:102B7C00A3F3BB62BB6AB3FA83F322FA03F3FB64DD
:102B8C00544AFB6C52F82330FB64514B9B6803F0A6
:102B9C000C03002B13D1FB6C7B6410E04C4B9B683B
:102BAC0003F00C03042B02D14B4B7B6407E0484B26
:102BBC009B6803F00C03082B01D1484B7B64444BFE
:102BCC009B6803F00C030C2B7BD1414BDB6803F0AF
:102BDC0003033B643E4BDB6803F0700270237B62A3
:102BEC007B6A93FAA3F33B623B6AB3FA83F322FA50
:102BFC0003F30133BB633B6C022B02D0032B18D0C5
:102C0C002FE0354ABB6BB2FBF3F3314AD26802F4C6
:102C1C00FE414FF4FE42FA61FA6992FAA2F2BA61ED
:102C2C00BA69B2FA82F221FA02F202FB03F3BB6434
:102C3C002FE02A4ABB6BB2FBF3F3254AD26802F4AD
:102C4C00FE414FF4FE427A617A6992FAA2F23A613D
:102C5C003A69B2FA82F221FA02F202FB03F3BB6484
:102C6C0017E0FA6CBB6BB2FBF3F3194AD26802F4AF
:102C7C00FE414FF4FE42FA60FA6892FAA2F2BA6090
:102C8C00BA68B2FA82F221FA02F202FB03F3BB64D5
:102C9C0000BF0F4BDB6803F0C0624FF0C0637B607A
:102CAC007B6893FAA3F33B603B68B3FA83F322FA95
:102CBC0003F301335B00FB63BA6CFB6BB2FBF3F306
:102CCC007B647B6C18465437BD4680BC704700BF94
:102CDC0000100240788F00080024F400001BB7009D
:102CEC0080B400AF024B1B681846BD4680BC7047D1
:102CFC005400002080B582B000AFFFF7F1FF014611
:102D0C000B4B9B6803F4E0624FF4E0637B607B68E1
:102D1C0093FAA3F33B603B68B3FA83F322FA03F311
:102D2C00044AD35C21FA03F318460837BD4680BD2C
:102D3C0000100240708F000880B582B000AFFFF722
:102D4C00CFFF01460B4B9B6803F460524FF460536A
:102D5C007B607B6893FAA3F33B603B68B3FA83F325
:102D6C0022FA03F3044AD35C21FA03F3184608371A
:102D7C00BD4680BD00100240708F000880B586B043
:102D8C0000AF786000237B6100233B612A4B9B6D75
:102D9C0003F08053002B03D000F052F8786114E05C
:102DAC00254A254B9B6D43F080539365224B9B6DBD
:102DBC0003F08053FB60FB6800F042F878611E4A18
:102DCC001D4B9B6D23F0805393657B69B3F5007F9E
:102DDC000BD17B68802B19D97B68A02B02D90223DD
:102DEC003B6113E001233B6110E07B68802B02D92F
:102DFC0003233B610AE07B68802B02D102233B61F9
:102E0C0004E07B68702B01D101233B610B490B4B18
:102E1C001B6823F007023B6913430B60074B1B68CD
:102E2C0003F007023B699A4201D0012300E0002322
:102E3C0018461837BD4680BD0010024000200240E5
:102E4C0080B400AF034B1B6803F4C0631846BD4647
:102E5C0080BC70470070004080B485B000AF7860D3
:102E6C000023FB607B68B3F5007F2FD1224B1B68DE
:102E7C0003F4C063B3F5007F37D01F4A1E4B1B68A9
:102E8C0023F4C06343F4007313601C4B1B681C4A8F
:102E9C00A2FB03239B0C322202FB03F3FB6002E038
:102EAC00FB68013BFB60FB68002B06D0124B5B6997
:102EBC0003F48063B3F5806FF2D00F4B5B6903F4BE
:102ECC008063B3F5806F10D103230FE00A4B1B68AE
:102EDC0003F4C063B3F5806F07D0074A064B1B6839
:102EEC0023F4C06343F48063136000231846143743
:102EFC00BD4680BC704700BF0070004054000020ED
:102F0C0083DE1B4380B400AF044A044B5B6843F47C
:102F1C008063536000BFBD4680BC704700700040AA
:102F2C0080B483B000AF786039607B6893F841302F
:102F3C00DBB2202B38D17B6893F84030012B01D1C8
:102F4C00022332E07B68012283F840207B68242234
:102F5C0083F841207B681B687A681268126822F03B
:102F6C0001021A607B681B687A681268126822F486
:102F7C0080521A607B681B687A68126811683A681C
:102F8C000A431A607B681B687A681268126842F000
:102F9C0001021A607B68202283F841207B680022A2
:102FAC0083F84020002300E0022318460C37BD466E
:102FBC0080BC7047F0B58BB006AF78600023FB6027
:102FCC007B68002B01D10123E0E07B6893F8ED33A3
:102FDC00DBB2002B06D17B68002283F8EC237868E7
:102FEC00FEF7EAFA7B68032283F8ED237B681B6803
:102FFC00184604F0C5FD7B681B683B607E686D4617
:10300C0006F110040FCC0FC594E8030085E803000B
:10301C00331D0ECB386804F089FD7B681B680021DA
:10302C00184604F0C9FD0023FB6038E07A68FB68A1
:10303C005B0113442D3301221A70FB68D9B27A68F4
:10304C00FB685B0113442C330A461A70FB6899B277
:10305C007A68FB685B01134438330A461A807A6835
:10306C00FB685B0113442F3300221A707A68FB68EB
:10307C005B0113443C3300221A607A68FB685B01E5
:10308C001344403300221A607A68FB6802335B01F8
:10309C001344043300221A60FB680133FB607B6825
:1030AC005A68FB689A42C1D80023FB603DE07A68FD
:1030BC00FB685B01134403F20D2300221A70FB68BA
:1030CC00D9B27A68FB685B01134403F503730A46B3
:1030DC001A70FB6899B27A68FB685B011344383349
:1030EC000A461A807A68FB685B01134403F20F23CB
:1030FC0000221A707A68FB685B01134403F50773AE
:10310C0000221A607A68FB685B01134403F50873AC
:10311C0000221A607A68FB6811335B011344043394
:10312C0000221A60FB680133FB60FB680E2BBED9D2
:10313C007B681B683B607E686D4606F110040FCC03
:10314C000FC594E8030085E80300331D0ECB3868E7
:10315C0004F03EFD7B68002283F828207B68012266
:10316C0083F8ED237B681B6A012B02D1786801F090
:10317C00D7FD7B685B6A012B02D1786801F0ABFD4F
:10318C007B681B68184605F0F7FC002318461437BB
:10319C00BD46F0BD80B582B000AF78607B6893F817
:1031AC00EC33012B01D1022312E07B68012283F85E
:1031BC00EC237B681B68184605F0C6FC7B681B6813
:1031CC00184604F0C3FC7B68002283F8EC23002330
:1031DC0018460837BD4680BD80B584B000AF786016
:1031EC000023FB607B681B68184605F0DBFC03467C
:1031FC0003F40043B3F5004F02D1786800F08AFB6A
:10320C007B681B68184605F0CDFC034603F480630D
:10321C00B3F5806F12D17B681B687A681268B2F8BC
:10322C00442092B222F4806292B2A3F844207868CF
:10323C00FEF737FA0021786800F04DF97B681B68BF
:10324C00184605F0AFFC034603F48043B3F5804FFA
:10325C000BD17B681B687A681268B2F8442092B272
:10326C0022F4804292B2A3F844207B681B68184673
:10327C0005F098FC034603F40053B3F5005F0BD143
:10328C007B681B687A681268B2F8442092B222F408
:10329C00005292B2A3F844207B681B68184605F0D4
:1032AC0081FC034603F48053B3F5805F57D17B68F0
:1032BC001B687A681268B2F8402092B222F00402BD
:1032CC0092B2A3F840204FF43F43FB607B681B682D
:1032DC00FA6892B2A3F840207B681B6A012B22D1BA
:1032EC00FB6843F08003FB607B681B68BB607B68FA
:1032FC000122C3F828247B68002283F82024BB68B1
:10330C00B3F854309BB243F001039AB2BB68A3F8F4
:10331C005420BB68B3F854309BB243F002039AB20A
:10332C00BB68A3F854207B6893F82034012B07D199
:10333C007B68002283F8202400217868FEF74AFB82
:10334C007868FEF7EBF97B681B687A681268B2F84C
:10335C00442092B222F4805292B2A3F844207B68AB
:10336C001B68184605F01EFC034603F40063B3F516
:10337C00006F31D17B681B687A681268B2F8442000
:10338C0092B222F4006292B2A3F844207B681B68CC
:10339C007A681268B2F8402092B242F0080292B2F7
:1033AC00A3F840207B681B687A681268B2F840204A
:1033BC0092B242F0040292B2A3F840207B681B68E0
:1033CC00184605F0EFFB034603F48053B3F5805F1A
:1033DC0002D07868FEF788F97B681B68184605F000
:1033EC00E1FB034603F08003802B3FD17B681B6815
:1033FC007A681268B2F8442092B222F0800292B23B
:10340C00A3F844207B6893F82034002B2BD17B68E5
:10341C001B687A681268B2F8402092B242F004023B
:10342C0092B2A3F840207B681B687A681268B2F8E5
:10343C00402092B242F0080292B2A3F840207B687E
:10344C00012283F820247B681B68B3F854309BB2AC
:10345C009B1003F03C027B68C3F82424012178689C
:10346C00FEF7B8FA02E07868FEF73EF97B681B6855
:10347C00184605F097FB034603F40073B3F5007F81
:10348C000ED17B681B687A681268B2F8442092B23D
:10349C0022F4007292B2A3F844207868FEF7F3F895
:1034AC007B681B68184605F07DFB034603F48073AC
:1034BC00B3F5807F0BD17B681B687A681268B2F811
:1034CC00442092B222F4807292B2A3F8442000BF3E
:1034DC001037BD4680BD80B582B000AF78600B461A
:1034EC00FB707B6893F8EC33012B01D1022313E0C2
:1034FC007B68012283F8EC237B68FA7883F8282018
:10350C007B681B68FA781146184605F009FB7B6846
:10351C00002283F8EC23002318460837BD4680BDF3
:10352C0080B584B000AF7860084611461A46034651
:10353C00FB700B463B801346BB700023FB720023D1
:10354C00FB6097F90330002B09DAFB7803F07F035B
:10355C005B0128337A6813440433FB6009E0FB7881
:10356C0003F07F035B0103F502737A6813440433A1
:10357C00FB60FB7803F07F03DAB2FB681A7097F9F3
:10358C000330DBB2DB09DBB21A46FB685A703A88AF
:10359C00FB681A61FB68BA78DA707B6893F8EC33D5
:1035AC00012B01D102230EE07B68012283F8EC236E
:1035BC007B681B68F968184604F02AFB7B680022BC
:1035CC0083F8EC23FB7A18461037BD4680BD80B5D6
:1035DC0084B000AF78600B46FB700023FB6097F95A
:1035EC000330002B09DAFB7803F07F035B012833EF
:1035FC007A6813440433FB6009E0FB7803F07F0323
:10360C005B0103F502737A6813440433FB60FB78A7
:10361C0003F07F03DAB2FB681A7097F90330DBB260
:10362C00DB09DBB21A46FB685A707B6893F8EC3303
:10363C00012B01D102230EE07B68012283F8EC23DD
:10364C007B681B68F968184604F0C4FD7B6800228F
:10365C0083F8EC23002318461037BD4680BD80B597
:10366C0086B000AFF8607A603B600B46FB720023BB
:10367C007B61FB7A03F07F035B0103F50273FA684D
:10368C00134404337B617B697A685A617B693A68BD
:10369C009A617B690022DA617B6900225A70FB7A9D
:1036AC0003F07F03DAB27B691A70FB6893F8EC3392
:1036BC00012B01D1022320E0FB68012283F8EC23CB
:1036CC00FB7A03F07F03002B09D1FB681868FB68B9
:1036DC00DB68DBB21A46796904F014FF08E0FB687A
:1036EC001868FB68DB68DBB21A46796904F00AFFDC
:1036FC00FB68002283F8EC23002318461837BD46DC
:10370C0080BD80B483B000AF78600B46FB70FB7853
:10371C0003F07F037A6811335B01134408331B6891
:10372C009BB218460C37BD4680BC704780B586B03E
:10373C0000AFF8607A603B600B46FB7200237B6144
:10374C00FB7A03F07F035B012833FA6813440433DC
:10375C007B617B697A685A617B693A689A617B699B
:10376C000022DA617B6901225A70FB7A03F07F0335
:10377C00DAB27B691A70FB6893F8EC33012B01D138
:10378C00022320E0FB68012283F8EC23FB7A03F090
:10379C007F03002B09D1FB681868FB68DB68DBB280
:1037AC001A46796904F0AEFE08E0FB681868FB68FD
:1037BC00DB68DBB21A46796904F0A4FEFB680022D0
:1037CC0083F8EC23002318461837BD4680BD80B51E
:1037DC0084B000AF78600B46FB700023FB6097F958
:1037EC000330002B09DAFB7803F07F035B012833ED
:1037FC007A6813440433FB6007E0FB785B0103F544
:10380C0002737A6813440433FB60FB6801229A70DC
:10381C00FB7803F07F03DAB2FB681A7097F9033078
:10382C00DBB2DB09DBB21A46FB685A707B6893F893
:10383C00EC33012B01D102231EE07B68012283F8BB
:10384C00EC237B681B68F968184605F07BF8FB785D
:10385C0003F07F03002B0AD17B6818687B68DB6858
:10386C00D9B27B6803F57C731A4605F0ACF97B681A
:10387C00002283F8EC23002318461037BD4680BD88
:10388C0080B584B000AF78600B46FB700023FB6002
:10389C0097F90330002B09DAFB7803F07F035B0107
:1038AC0028337A6813440433FB6007E0FB785B0130
:1038BC0003F502737A6813440433FB60FB6800223F
:1038CC009A70FB7803F07F03DAB2FB681A7097F9F1
:1038DC000330DBB2DB09DBB21A46FB685A707B683B
:1038EC0093F8EC33012B01D102230EE07B6801220B
:1038FC0083F8EC237B681B68F968184605F082F89E
:10390C007B68002283F8EC23002318461037BD4651
:10391C0080BD000090B589B000AF78600023BB611A
:10392C000023FB830023FB750023FB810023BB8159
:10393C00F6E2FB899BB2DBB203F00F03FB75FB7D58
:10394C00002B40F02181FB899BB203F01003002B6C
:10395C004BD17B681A687B681B681B889BB223F46D
:10396C00E14323F070039BB213807B682C33BB6163
:10397C007B681B68B3F850309BB21A46BB691B7846
:10398C00DB0013441A467B681B68134403F20243A2
:10399C001B88C3F30902BB69DA61BB695A69BB694D
:1039AC00DB691A44BB695A6100217868FDF754FE43
:1039BC007B6893F82830DBB2002B00F0B182BB6936
:1039CC009B69002B40F0AC827B681B687A6892F88C
:1039DC002820D2B262F07F02D2B292B2A3F84C206D
:1039EC007B68002283F828209AE27B6803F5037336
:1039FC00BB617B681B681B889BB2BB81BB899BB27C
:103A0C0003F40063002B2FD07B681B68B3F8503095
:103A1C009BB21A46BB691B78DB0013441A467B68C1
:103A2C001B68134403F206431B88C3F30902BB69EA
:103A3C00DA617B6818687B6803F57C71BB699A88CE
:103A4C00BB69DB699BB205F005F97B681A687B687A
:103A5C001B681B8899B240F68F730B409BB2138086
:103A6C007868FDF7CFFD5BE2BB899BB21BB2002BE4
:103A7C0080F256827B681A687B681B681B8899B237
:103A8C0040F68F730B409BB213807B681B68B3F8B6
:103A9C0050309BB21A46BB691B78DB0013441A46A4
:103AAC007B681B68134403F206431B88C3F30902AB
:103ABC00BB69DA61BB69DB69002B11D07B681868C4
:103ACC00BB695969BB699A88BB69DB699BB205F014
:103ADC00C1F8BB695A69BB69DB691A44BB695A6195
:103AEC0000217868FDF7A0FD7B681B68B3F85030A7
:103AFC009BB21A467B681B68134403F206433B6176
:103B0C00BB691B693E2B17D9BB691B695B09BB835E
:103B1C00BB691B6903F01F03002B02D1BB8B013B5C
:103B2C00BB83BB8B9B029BB26FEA43436FEA53434D
:103B3C009AB23B691A8011E0BB691B695B08BB83B5
:103B4C00BB691B6903F00103002B02D0BB8B013353
:103B5C00BB83BB8B9B029AB23B691A807B681B6848
:103B6C001B889BB223F4804323F070039CB284F433
:103B7C0080539CB284F400539CB27B681A68964BB9
:103B8C0023439BB21380CBE17B681B681A46FB7DF9
:103B9C009B0013441B889BB2BB81BB899BB21BB29D
:103BAC00002B80F2CD807B681B681A46FB7D9B0046
:103BBC001A447B681B681946FB7D9B000B441B88D1
:103BCC0099B240F68F730B409BB21380FB7D5B0167
:103BDC0003F502737A6813440433BB61BB699B7AA7
:103BEC00002B20D17B681B68B3F850309BB21A466F
:103BFC00BB691B78DB0013441A467B681B681344B3
:103C0C0003F206431B88C3F30903FB83FB8B002BD6
:103C1C0071D07B681868BB695969BB699A88FB8B42
:103C2C0005F018F867E07B681B681A46BB691B78BF
:103C3C009B0013441B889BB203F48043002B20D0C1
:103C4C007B681B68B3F850309BB21A46BB691B7873
:103C5C00DB0013441A467B681B68134403F20243CF
:103C6C001B88C3F30903FB83FB8B002B29D07B68D8
:103C7C001868BB695969BB69DA88FB8B04F0EAFFE9
:103C8C001FE07B681B68B3F850309BB21A46BB69C7
:103C9C001B78DB0013441A467B681B68134403F241
:103CAC0006431B88C3F30903FB83FB8B002B08D053
:103CBC007B681868BB695969BB691A89FB8B04F06E
:103CCC00C9FF7B681B681A46BB691B789B001A44AA
:103CDC007B681B681946BB691B789B000B441B88CF
:103CEC009BB219B240F60F730B4019B23B4B0B430E
:103CFC001BB29BB21380BB69DA69FB8B1A44BB699C
:103D0C00DA61BB695A69FB8B1A44BB695A61BB699E
:103D1C009B69002B04D0FA8BBB691B699A4206D2B3
:103D2C00BB691B7819467868FDF77EFC08E0BB6917
:103D3C001978BB695A69BB699B697868FFF78FFC76
:103D4C00BB899BB203F08003002B00F0E980FB7D64
:103D5C005B0128337A6813440433BB617B681B68AE
:103D6C001A46FB7D9B001A447B681B681946FB7D39
:103D7C009B000B441B889BB223F4E14323F070039C
:103D8C009BB21380BB699B7A002B29D17B681B6883
:103D9C00B3F850309BB21A46BB691B78DB00134456
:103DAC001A467B681B68134403F202431B88C3F357
:103DBC000902BB69DA61BB69DB69002B00F080800A
:103DCC007B681868BB695969BB699A88BB69DB69F0
:103DDC009BB204F005FF73E08080FFFFC080FFFF03
:103DEC007B681B681A46BB691B789B0013441B88B5
:103DFC009BB203F04003002B24D07B681B68B3F804
:103E0C0050309BB21A46BB691B78DB0013441A4630
:103E1C007B681B68134403F202431B88C3F309023B
:103E2C00BB69DA61BB69DB69002B2FD07B68186832
:103E3C00BB695969BB69DA88BB69DB699BB204F061
:103E4C00CFFE23E07B681B68B3F850309BB21A4658
:103E5C00BB691B78DB0013441A467B681B68134450
:103E6C0003F206431B88C3F30902BB69DA61BB6921
:103E7C00DB69002B0AD07B681868BB695969BB6980
:103E8C001A89BB69DB699BB204F0AAFE7B681B68CC
:103E9C001A46BB691B789B001A447B681B68194641
:103EAC00BB691B789B000B441B889BB219B240F674
:103EBC000F730B4019B2224B0B431BB29BB21380F6
:103ECC007B681B68B3F850309BB21A46BB691B78F1
:103EDC00DB0013441A467B681B68134403F202434D
:103EEC001B88C3F30902BB69DA61BB695A69BB69F8
:103EFC00DB691A44BB695A61BB699B69002B06D10B
:103F0C00BB691B7819467868FDF7A6FB08E0BB690E
:103F1C001978BB695A69BB699B697868FFF706FC1D
:103F2C007B681B68B3F844309BB21A46FA811BB20B
:103F3C00002BFFF6FEAC002318462437BD4690BD7F
:103F4C0080C0FFFF80B586B000AF786000237B6136
:103F5C000023FB600023FB740023BB747B681B688D
:103F6C0003F40063002B2FD07B685B6CB3F5000F60
:103F7C0005D0B3F5400F15D0002B07D00FE05A4AEF
:103F8C00594BDB6843F48033D3600CE07B6804331B
:103F9C000021184600F01CFA0346FB7403E00123D1
:103FAC00FB7400E000BFFB7C002B0BD14E494E4B49
:103FBC00D3F8883023F440027B685B6C1343C1F860
:103FCC00883001E0FB7CBB747B681B6803F4003316
:103FDC00002B00F0988000237B74434B9B6D03F007
:103FEC008053002B0DD1404A3F4B9B6D43F08053C7
:103FFC0093653D4B9B6D03F08053BB60BB68012305
:10400C007B743A4A394B1B6843F48073136000F09D
:10401C006BFBF86009E000F067FB0246FB68D31A03
:10402C00022B02D90323FB7405E0304B1B6803F40D
:10403C008073002BEFD0FB7C002B59D12A4BD3F88B
:10404C00903003F440737B617B69002B1ED07B683E
:10405C00DA6D7B699A4219D0234BD3F8903023F454
:10406C0040737B61204A204BD3F8903043F480336B
:10407C00C2F890301C4A1C4BD3F8903023F4803398
:10408C00C2F89030184A7B69C2F890307B6903F013
:10409C000103002B16D000F027FBF8600BE000F0BA
:1040AC0023FB0246FB68D31A41F28832934202D9B1
:1040BC000323FB7406E00C4BD3F8903003F002039F
:1040CC00002BECD0FB7C002B0BD10749064BD3F813
:1040DC00903023F440727B68DB6D1343C1F8903051
:1040EC0008E0FB7CBB7405E000100240007000404F
:1040FC00FB7CBB747B7C012B05D18D4A8C4B9B6D5F
:10410C0023F0805393657B681B6803F00103002B3D
:10411C000AD08749864BD3F8883023F003027B689A
:10412C001B6A1343C1F888307B681B6803F00203D9
:10413C00002B0AD07E497E4BD3F8883023F00C023A
:10414C007B685B6A1343C1F888307B681B6803F09B
:10415C000403002B0AD07649754BD3F8883023F032
:10416C0030027B689B6A1343C1F888307B681B68FC
:10417C0003F02003002B0AD06D496D4BD3F8883027
:10418C0023F440627B68DB6A1343C1F888307B6898
:10419C001B6803F40073002B0AD06549644BD3F8F9
:1041AC00883023F440227B68DB6B1343C1F88830E2
:1041BC007B681B6803F48063002B0AD05C495C4B62
:1041CC00D3F8883023F440127B681B6C1343C1F87E
:1041DC0088307B681B6803F04003002B0AD05449DD
:1041EC00534BD3F8883023F440527B681B6B13433A
:1041FC00C1F888307B681B6803F08003002B0AD061
:10420C004B494B4BD3F8883023F440427B685B6BB3
:10421C001343C1F888307B681B6803F48073002B50
:10422C000AD04349424BD3F8883023F440327B68A0
:10423C009B6B1343C1F888307B681B6803F40053F5
:10424C00002B28D03A493A4BD3F8883023F04062FF
:10425C007B689B6C1343C1F888307B689B6CB3F113
:10426C00006F06D1324A324BDB6843F48013D360C3
:10427C0011E07B689B6CB3F1806F0CD17B680433CD
:10428C000121184600F0A4F80346FB74FB7C002BBC
:10429C0001D0FB7CBB747B681B6803F40023002BF0
:1042AC0028D02349224BD3F8883023F040627B6816
:1042BC00DB6C1343C1F888307B68DB6CB3F1006FA7
:1042CC0006D11B4A1A4BDB6843F48013D36011E010
:1042DC007B68DB6CB3F1806F0CD17B6804330121FC
:1042EC00184600F075F80346FB74FB7C002B01D0DC
:1042FC00FB7CBB747B681B6803F48023002B2BD0E6
:10430C000B490B4BD3F8883023F040627B681B6D54
:10431C001343C1F888307B681B6DB3F1006F09D172
:10432C00034A034BDB6843F48013D36014E000BFF3
:10433C00001002407B681B6DB3F1806F0CD17B6861
:10434C0004330121184600F043F80346FB74FB7C50
:10435C00002B01D0FB7CBB747B681B6803F480438F
:10436C00002B1CD01949194BD3F8883023F040523C
:10437C007B685B6D1343C1F888307B685B6DB3F170
:10438C00805F0CD17B6804330221184600F020F8C2
:10439C000346FB74FB7C002B01D0FB7CBB747B685D
:1043AC001B6803F40043002B0AD00849074BD3F8D1
:1043BC00883023F080427B689B6D1343C1F88830B2
:1043CC00BB7C18461837BD4680BD00BF00100240AC
:1043DC0090B595B000AF786039600023BB640023C2
:1043EC0087F84F30A34BDB6803F00303002B23D07B
:1043FC00A04BDB6803F003027B681B689A4217D161
:10440C007B681B68002B13D09A4BDB6803F070029F
:10441C0070237B647B6C93FAA3F33B643B6CB3FA21
:10442C0083F322FA03F35A1C7B685B689A4254D0DC
:10443C00012387F84F3050E07B681B68022B0DD0AE
:10444C00032B15D0012B23D18A4B1B6803F00203DD
:10445C00002B21D1012387F84F301DE0854B1B68C1
:10446C0003F48063002B19D1012387F84F3015E03A
:10447C00804B1B6803F40033002B11D17D4B1B6860
:10448C0003F48023002B0BD1012387F84F3007E076
:10449C00012387F84F3004E000BF02E000BF00E0CA
:1044AC0000BF97F84F30002B17D1724C714BDB6863
:1044BC0023F073027B6819687B685B68581E702355
:1044CC00FB63FB6B93FAA3F3BB63BB6BB3FA83F392
:1044DC0000FA03F30B431343E36097F84F30002BC0
:1044EC0040F0C180634A634B1B6823F08063136008
:1044FC0000F0FAF8B8640AE000F0F6F80246BB6C7B
:10450C00D31A022B03D9032387F84F3005E0594BFC
:10451C001B6803F00063002BEED197F84F30002B93
:10452C0040F0A1803B68002B25D1524C514B1B69AC
:10453C0023F0784323F4FE437A6891684FF4FE42EB
:10454C00FA62FA6A92FAA2F2BA62BA6AB2FA82F21F
:10455C0091407A68D0684FF078427A637A6B92FA1D
:10456C00A2F23A633A6BB2FA82F200FA02F20A430E
:10457C001343236151E03B68012B27D13D4C3D4B4C
:10458C001B6923F4C00323F4FE437A6891684FF44B
:10459C00FE42FA61FA6992FAA2F2BA61BA69B2FA07
:1045AC0082F291407A6812695208501E4FF4C00290
:1045BC007A627A6A92FAA2F23A623A6AB2FA82F2AF
:1045CC0000FA02F20A431343236126E0294C294BDB
:1045DC001B6923F0C06323F4FE437A6891684FF49F
:1045EC00FE42FA60FA6892FAA2F2BA60BA68B2FABB
:1045FC0082F291407A6852695208501E4FF0C062A4
:10460C007A617A6992FAA2F23A613A69B2FA82F262
:10461C0000FA02F20A4313432361164A154B1B6836
:10462C0043F08063136000F05FF8B8640AE000F0B8
:10463C005BF80246BB6CD31A022B03D9032387F811
:10464C004F3005E00B4B1B6803F00063002BEED0E2
:10465C0097F84F30002B06D10649064B1A697B6838
:10466C009B6913430B6197F84F3018465437BD467E
:10467C0090BD00BF0010024080B500AF032001F0D8
:10468C002BFF002000F006F8FDF72EFB0023184648
:10469C0080BD000080B582B000AF7860094B1B680C
:1046AC00094AA2FB03239B09184601F058FF00227C
:1046BC0079684FF0FF3001F01AFF002318460837D5
:1046CC00BD4680BD54000020D34D621080B400AFB5
:1046DC00044B1B680133034A136000BFBD4680BC0A
:1046EC00704700BF0418002080B400AF024B1B6859
:1046FC001846BD4680BC70470418002080B584B0B5
:10470C0000AF78600023FB60FFF7EEFFF86000BF9E
:10471C00FFF7EAFF0246FB68D21A7B689A42F7D38E
:10472C0000BF1037BD4680BD80B487B000AF786045
:10473C00396000237B610023FB6000233B6154E163
:10474C003B681A6801217B6901FA03F31340FB6093
:10475C00FB68002B00F046813B685B68022B03D0A2
:10476C003B685B68122B23D17B69DA087B680832C3
:10477C0053F822303B617B6903F007039B000F2247
:10478C0002FA03F3DB433A6913403B613B681A6955
:10479C007B6903F007039B0002FA03F33A691343A6
:1047AC003B617B69DA087B680832396943F822106F
:1047BC007B681B683B617B695B00032202FA03F395
:1047CC00DB433A6913403B613B685B6803F00302CF
:1047DC007B695B0002FA03F33A6913433B617B6824
:1047EC003A691A603B685B68012B0BD03B685B68CD
:1047FC00022B07D03B685B68112B03D03B685B68CE
:10480C00122B30D17B689B683B617B695B00032278
:10481C0002FA03F3DB433A6913403B613B68DA6805
:10482C007B695B0002FA03F33A6913433B617B68D3
:10483C003A699A607B685B683B6101227B6902FA8A
:10484C0003F3DB433A6913403B613B685B681B092C
:10485C0003F001027B6902FA03F33A6913433B61EB
:10486C007B683A695A607B68DB683B617B695B00FB
:10487C00032202FA03F3DB433A6913403B613B68C2
:10488C009A687B695B0002FA03F33A6913433B6154
:10489C007B683A69DA603B685B6803F08053002BF5
:1048AC0000F0A080574A574B1B6E43F00103136670
:1048BC00544B1B6E03F00103BB60BB68524A7B690F
:1048CC009B08023352F823303B617B6903F00303EE
:1048DC009B000F2202FA03F3DB433A6913403B615E
:1048EC007B68B3F1904F19D07B68484A934213D040
:1048FC007B68474A93420DD07B68464A934207D067
:10490C007B68454A934201D1042308E0072306E063
:10491C00032304E0022302E0012300E000237A6970
:10492C0002F00302920093403A6913433B6136490B
:10493C007B699B0802333A6941F82320374B1B688B
:10494C003B61FB68DB433A6913403B613B685B6846
:10495C0003F48033002B03D03A69FB6813433B61AB
:10496C002E4A3B6913602D4B5B683B61FB68DB4354
:10497C003A6913403B613B685B6803F40033002BDE
:10498C0003D03A69FB6813433B61244A3B6953608B
:10499C00224B9B683B61FB68DB433A6913403B61EC
:1049AC003B685B6803F48013002B03D03A69FB6807
:1049BC0013433B61194A3B699360184BDB683B61BD
:1049CC00FB68DB433A6913403B613B685B6803F46B
:1049DC000013002B03D03A69FB6813433B610F4A69
:1049EC003B69D3607B6901337B613B681A687B69E7
:1049FC0022FA03F3002B7FF4A3AE00BF1C37BD4695
:104A0C0080BC7047001002400000014000040048C8
:104A1C0000080048000C0048001000480004014049
:104A2C0080B487B000AF7860396000237B610023CD
:104A3C003B610023FB60B7E001227B699A403B6835
:104A4C0013403B613B69002B00F0AB807B681A681C
:104A5C007B695B00032101FA03F31A437B681A603C
:104A6C007B69DA087B69D9087B68083153F8211017
:104A7C007B6903F007039B000F2000FA03F3DB4371
:104A8C0019407B68083243F822107B689A687B696E
:104A9C005B00032101FA03F3DB431A407B689A6045
:104AAC007B685A6801217B6901FA03F3DB431A40E6
:104ABC007B685A607B68DA687B695B00032101FACA
:104ACC0003F3DB431A407B68DA603D4A7B699B0841
:104ADC00023352F82330FB607B6903F003039B0025
:104AEC000F2202FA03F3FA681340FB607B68B3F100
:104AFC00904F19D07B68334A934213D07B68324A6B
:104B0C0093420DD07B68314A934207D07B68304A80
:104B1C00934201D1042308E0072306E0032304E0B9
:104B2C00022302E0012300E000237A6902F0030271
:104B3C00920003FA02F2FB689A4232D17B6903F0CD
:104B4C0003039B000F2202FA03F3FB601C487B69F2
:104B5C009B081B497A699208023251F82210FA68B4
:104B6C00D2430A40023340F823201A49194B1A68E1
:104B7C003B69DB4313400B601649164B5A683B6983
:104B8C00DB4313404B601349124B9A683B69DB4380
:104B9C0013408B600F490F4BDA683B69DB431340C2
:104BAC00CB607B6901337B613A687B6922FA03F342
:104BBC00002B7FF441AF00BF1C37BD4680BC704753
:104BCC00000001400004004800080048000C0048A8
:104BDC00001000480004014080B485B000AF78603C
:104BEC000B467B807B681A697B881340002B02D0B4
:104BFC000123FB7301E00023FB73FB7B1846143786
:104C0C00BD4680BC704780B483B000AF78600B4663
:104C1C007B8013467B707B78002B03D07A887B6873
:104C2C009A6102E07A887B689A6200BF0C37BD46B5
:104C3C0080BC704780B483B000AF78600B467B803B
:104C4C007B685A697B885A407B685A6100BF0C3775
:104C5C00BD4680BC704780B487B000AFF8607B6005
:104C6C000B467B8113463B8100237B617B8903F0E0
:104C7C0080039BB2002B09D07B8903F07F035B017F
:104C8C002833FA68134404337B6107E07B895B01AA
:104C9C0003F50273FA68134404337B613B89002BE0
:104CAC0007D17B6900229A727B689AB27B699A80E1
:104CBC000BE07B6901229A727B689AB27B69DA807D
:104CCC007B681B0C9AB27B691A81002318461C372F
:104CDC00BD4680BC704780B485B000AF78607B68FF
:104CEC001B68FB607B680122C3F82C24FB68B3F8BB
:104CFC0058309BB243F001039AB2FB68A3F85820DA
:104D0C00FB68B3F858309BB243F002039AB2FB68CD
:104D1C00A3F85820002318461437BD4680BC7047B2
:104D2C0080B485B000AF78607B681B68FB607B68E3
:104D3C000122C3F828247B68002283F82024FB6816
:104D4C00B3F854309BB243F001039AB2FB68A3F85A
:104D5C005420FB68B3F854309BB243F002039AB270
:104D6C00FB68A3F85420002318461437BD4680BCBA
:104D7C00704780B582B000AF78607B68002B01D1A2
:104D8C00012343E07B6893F86930DBB2002B06D13A
:104D9C007B68002283F868207868FDF7B1F87B689F
:104DAC00242283F869207B681B687A681268126871
:104DBC0022F001021A60786800F0B4FA0346012B65
:104DCC0001D1012322E07B685B6A002B02D078685A
:104DDC0000F076FD7B681B687A681268526822F4D2
:104DEC0090425A607B681B687A681268926822F05D
:104DFC002A029A607B681B687A681268126842F013
:104E0C0001021A60786800F0FCFD0346184608376A
:104E1C00BD4680BD80B588B002AFF860B9603B601C
:104E2C001346FB8000237B61FB6893F86930DBB28F
:104E3C00202B77D1BB68002B02D0FB88002B01D133
:104E4C00012370E0FB6893F86830012B01D1022339
:104E5C0069E0FB68012283F86820FB680022DA66AF
:104E6C00FB68212283F86920FFF73EFC7861FB6820
:104E7C00FA88A3F85020FB68FA88A3F8522034E093
:104E8C00FB68B3F852309BB2013B9AB2FB68A3F8B3
:104E9C0052203B6800937B6900228021F86800F067
:104EAC00F9FD0346002B01D003233CE0FB689B6813
:104EBC00B3F5805F11D1FB681B69002B0DD1BB686A
:104ECC003B61FB681B683A691288C2F3080292B214
:104EDC001A85BB680233BB6007E0FB681A68BB68C5
:104EEC00591CB9601B789BB21385FB68B3F8523020
:104EFC009BB2002BC4D13B6800937B6900224021FC
:104F0C00F86800F0C7FD0346002B01D003230AE02C
:104F1C00FB68202283F86920FB68002283F8682054
:104F2C00002300E0022318461837BD4680BD80B52B
:104F3C008AB002AFF860B9603B601346FB80002377
:104F4C00FB61FB6893F86A30DBB2202B40F0AD803C
:104F5C00BB68002B02D0FB88002B01D10123A5E0FC
:104F6C00FB6893F86830012B01D102239EE0FB68AB
:104F7C00012283F86820FB680022DA66FB68222293
:104F8C0083F86A20FFF7B0FBF861FB68FA88A3F896
:104F9C005820FB68FA88A3F85A20FB689B68B3F585
:104FAC00805F0ED1FB681B69002B05D1FB6840F2BA
:104FBC00FF12A3F85C2028E0FB68FF22A3F85C201A
:104FCC0023E0FB689B68002B0DD1FB681B69002B51
:104FDC0004D1FB68FF22A3F85C2016E0FB687F225B
:104FEC00A3F85C2011E0FB689B68B3F1805F0CD1E7
:104FFC00FB681B69002B04D1FB687F22A3F85C20A3
:10500C0003E0FB683F22A3F85C20FB68B3F85C303C
:10501C007B833AE0FB68B3F85A309BB2013B9AB2FF
:10502C00FB68A3F85A203B680093FB6900222021FF
:10503C00F86800F02FFD0346002B01D0032335E068
:10504C00FB689B68B3F5805F12D1FB681B69002B72
:10505C000ED1BB687B61FB681B689B8C9AB27B8B07
:10506C0013409AB27B691A80BB680233BB600CE0B8
:10507C00BB685A1CBA60FA681268928C92B2D1B2B0
:10508C007A8BD2B20A40D2B21A70FB68B3F85A309B
:10509C009BB2002BBED1FB68202283F86A20FB68F0
:1050AC00002283F86820002300E0022318462037F2
:1050BC00BD4680BD80B586B000AF78607B681B684C
:1050CC00DB697B617B681B681B683B617B6903F058
:1050DC000F03FB60FB68002B0DD17B6903F02003F1
:1050EC00002B08D03B6903F02003002B03D0786819
:1050FC0000F0BCFDFEE07B681B689B68BB60FB6836
:10510C00002B00F0BA80BB6803F00103002B05D123
:10511C003B6903F49073002B00F0AF807B6903F0C4
:10512C000103002B0ED03B6903F48073002B09D0D4
:10513C007B681B6801221A627B68DB6E43F00102FC
:10514C007B68DA667B6903F00203002B0ED0BB6828
:10515C0003F00103002B09D07B681B6802221A6242
:10516C007B68DB6E43F004027B68DA667B6903F0D4
:10517C000403002B0ED0BB6803F00103002B09D0F5
:10518C007B681B6804221A627B68DB6E43F00202A8
:10519C007B68DA667B6903F00803002B13D03B694C
:1051AC0003F02003002B04D1BB6803F00103002B98
:1051BC0009D07B681B6808221A627B68DB6E43F09F
:1051CC0008027B68DA667B68DB6E002B00F091804E
:1051DC007B6903F02003002B07D03B6903F020030D
:1051EC00002B02D0786800F041FD7B68DB6E03F089
:1051FC000803002B06D17B681B689B6803F04003F7
:10520C00402B31D1786800F08FFC7B681B689B6861
:10521C0003F04003402B23D17B681B687A6812682B
:10522C00926822F040029A607B685B6E002B13D070
:10523C007B685B6E314A9A637B685B6E184601F043
:10524C00CCF90346002B16D07B685B6E9B6B7A689F
:10525C00526E104698470EE07868FBF75FFA0AE04A
:10526C007868FBF75BFA06E07868FBF757FA7B681F
:10527C000022DA663DE000BF3BE07B681B689B6860
:10528C00BB607B6903F48013002B15D0BB6803F45F
:10529C008003002B10D07B681B684FF480121A62BD
:1052AC007B68202283F869207B68202283F86A209F
:1052BC00786801F089F91DE07B6903F08003002B0D
:1052CC0008D03B6903F08003002B03D0786800F012
:1052DC005EFC0FE07B6903F04003002B0AD03B69B6
:1052EC0003F04003002B05D0786800F0A7FC00BF4A
:1052FC0000E000BF1837BD4680BD00BF6F5B0008E3
:10530C0080B483B000AF786000BF0C37BD4680BC62
:10531C00704780B483B000AF786000BF0C37BD46D7
:10532C0080BC70472DE9B04386B000AF7860002395
:10533C007B611023FB740023BB8100233B82002381
:10534C00FB737B689A687B681B691A437B685B6993
:10535C001A437B68DB6913437B617B681A687B6843
:10536C001B681968B84B0B4079690B4313607B6859
:10537C001B687A681268526822F440517A68D268C5
:10538C000A435A607B689B697B617B681B68AF4AE8
:10539C00934204D07B681B6A7A6913437B617B68F8
:1053AC001B687A681268926822F430617A690A4341
:1053BC009A607B681B68A64A934221D1A54BD3F80F
:1053CC00883003F00303032B16D801A252F823F004
:1053DC00ED530008F9530008F3530008FF5300087D
:1053EC000123FB7494E00223FB7491E00423FB740F
:1053FC008EE00823FB748BE01023FB7400BF87E066
:10540C007B681B68944A934234D1924BD3F8883012
:10541C0003F00C030C2B29D801A252F823F000BF87
:10542C006154000879540008795400087954000834
:10543C006D54000879540008795400087954000818
:10544C00675400087954000879540008795400080E
:10545C00735400080023FB745AE00223FB7457E0DA
:10546C000423FB7454E00823FB7451E01023FB74F9
:10547C0000BF4DE07B681B68784A934220D1754B86
:10548C00D3F8883003F03003102B0FD0102B02D838
:10549C00002B05D010E0202B05D0302B09D00BE0D1
:1054AC000023FB7434E00223FB7431E00423FB740F
:1054BC002EE00823FB742BE01023FB7400BF27E0C5
:1054CC007B681B68614A934223D1624BD3F88830C6
:1054DC0003F44063B3F5806F12D0B3F5806F02D83C
:1054EC00002B07D012E0B3F5006F06D0B3F5406F78
:1054FC0009D00BE00023FB740AE00223FB7407E0E5
:10550C000423FB7404E00823FB7401E01023FB74F8
:10551C0000BF7B681B684D4A934240F0EC8000232F
:10552C007B61FB7C082B24D801A252F823F000BF2E
:10553C00615500087F550008695500087F55000823
:10554C006F5500087F5500087F5500087F550008EF
:10555C0077550008FDF7CEFB78610DE0404B7B6181
:10556C000AE0FDF7C3FA786106E04FF400437B6173
:10557C0002E00123FB7300BF7B69002B00F09981D3
:10558C007B685A6813465B001A447B699A4205D8BB
:10559C007B685B681A037B699A4202D20123FB7316
:1055AC0087E1FB7C082B00F2938001A252F823F0D8
:1055BC00E1550008DD56000821560008DD560008AC
:1055CC0075560008DD560008DD560008DD5600084B
:1055DC00B3560008FDF78EFB03464FF000044FEA6C
:1055EC00042949EA13694FEA03287B685B685B0866
:1055FC004FF0000418EB030049EB04017B685B6877
:10560C004FF000041A462346FAF71AFE03460C46DE
:10561C007B6160E07B685B685B084FF000041149BC
:10562C004FF0000213EB010844EB020940464946D7
:10563C007B685B684FF000041A462346FAF700FEBD
:10564C0003460C467B6146E0F369FFEF00800040A7
:10565C000038014000100240004400400048004067
:10566C000024F400000024F4FDF740FA03461A4627
:10567C004FF000031D0245EA126514027B685B685B
:10568C005B081A464FF00003A01845EB03017B683A
:10569C005B684FF000041A462346FAF7D1FD034627
:1056AC000C467B6117E07B685B685B084FF000047D
:1056BC0013F5000044F100017B685B684FF00004B7
:1056CC001A462346FAF7BCFD03460C467B6102E002
:1056DC000123FB7300BF7B69B3F5407F08D37B6963
:1056EC00B3F5801F04D27B681B687A69DA60E0E04E
:1056FC000123FB73DDE07B68DB69B3F5004F6ED1F2
:10570C00FB7C082B56D801A252F823F03D57000819
:10571C005957000875570008C15700088F570008E3
:10572C00C1570008C1570008C1570008AB57000803
:10573C00FDF7E0FA03465A007B685B685B081A4485
:10574C007B685B68B2FBF3F33B8236E0FDF7F4FA5F
:10575C0003465A007B685B685B081A447B685B688D
:10576C00B2FBF3F33B8228E07B685B685B0803F1D8
:10577C00F47303F590437A685268B3FBF2F33B82FF
:10578C001BE0FDF7B3F903465A007B685B685B08C6
:10579C001A447B685B68B2FBF3F33B820DE07B68D9
:1057AC005B685B0803F580327B685B68B2FBF3F3E4
:1057BC003B8202E00123FB7300BF3B8A23F00F0303
:1057CC00BB813B8A5B109BB203F007039AB2BB8987
:1057DC001343BB817B681B68BA89DA6069E0FB7C88
:1057EC00082B63D801A252F823F000BF1D58000803
:1057FC003D5800085D580008B95800087D5800084D
:10580C00B9580008B9580008B95800089D58000844
:10581C007B681C68FDF76EFA02467B685B685B0868
:10582C001A447B685B68B2FBF3F39BB2E36040E025
:10583C007B681C68FDF780FA02467B685B685B0836
:10584C001A447B685B68B2FBF3F39BB2E36030E015
:10585C007B681A687B685B685B0803F5740303F567
:10586C00105379684968B3FBF1F39BB2D36020E025
:10587C007B681C68FDF73AF902467B685B685B083D
:10588C001A447B685B68B2FBF3F39BB2E36010E0F5
:10589C007B681B687A685268520802F500417A6886
:1058AC005268B1FBF2F292B2DA6002E00123FB73B0
:1058BC0000BFFB7B18461837BD46BDE8B08300BF60
:1058CC0080B483B000AF78607B685B6A03F001033F
:1058DC00002B0AD07B681B687A681268526822F425
:1058EC0000317A68926A0A435A607B685B6A03F0FB
:1058FC000203002B0AD07B681B687A681268526816
:10590C0022F480317A68D26A0A435A607B685B6AF7
:10591C0003F00403002B0AD07B681B687A681268BA
:10592C00526822F480217A68126B0A435A607B68B1
:10593C005B6A03F00803002B0AD07B681B687A684B
:10594C001268526822F400417A68526B0A435A601A
:10595C007B685B6A03F01003002B0AD07B681B6822
:10596C007A681268926822F480517A68926B0A43C2
:10597C009A607B685B6A03F02003002B0AD07B687B
:10598C001B687A681268926822F400517A68D26BAC
:10599C000A439A607B685B6A03F04003002B1AD0C1
:1059AC007B681B687A681268526822F480117A68E6
:1059BC00126C0A435A607B681B6CB3F5801F0AD1CA
:1059CC007B681B687A681268526822F4C0017A6896
:1059DC00526C0A435A607B685B6A03F08003002BAD
:1059EC000AD07B681B687A681268526822F400211E
:1059FC007A68926C0A435A6000BF0C37BD4680BC73
:105A0C00704780B586B002AF78600023FB607B687E
:105A1C000022DA66FEF768FEF8607B681B681B687C
:105A2C0003F00803082B0ED16FF07E430093FB6844
:105A3C0000224FF40011786800F02CF80346002B7C
:105A4C0001D0032322E07B681B681B6803F004036E
:105A5C00042B0ED16FF07E430093FB6800224FF4B1
:105A6C008001786800F016F80346002B01D0032360
:105A7C000CE07B68202283F869207B68202283F865
:105A8C006A207B68002283F86820002318461037B0
:105A9C00BD4680BD80B584B000AFF860B9603B6096
:105AAC001346FB712CE0BB69B3F1FF3F28D0BB69F7
:105ABC00002B07D0FEF718FE02463B68D21ABB69D2
:105ACC009A421DD9FB681B68FA681268126822F4A6
